:100000000C94E1000C9409010C9409010C94090171
:100010000C9409010C9409010C9409010C94090138
:100020000C9409010C9409010C9409010C94090128
:100030000C9409010C9409010C9409010C94090118
:100040000C94EF020C9409010C9409010C94090121
:100050000C9409010C9409010C9409010C940901F8
:100060000C9409010C9409016E616E00696E6600C2
:1000700000407A10F35A00A0724E18090010A5D45F
:10008000E80000E87648170000E40B54020000CABC
:100090009A3B000000E1F505000080969800000002
:1000A00040420F000000A086010000001027000061
:1000B0000000E803000000006400000000000A00E7
:1000C000000000000100000000002C76D888DC67EA
:1000D0004F0823DFC1DFAE59E1B1B796E5E3E45342
:1000E000C63AE651997696E8E6C28426EB898C9B5F
:1000F00062ED407C6FFCEFBC9C9F40F2BAA56FA5FF
:10010000F490055A2AF75C936B6CF9676DC11BFC80
:10011000E0E40D47FEF520E6B500D0ED902E03009B
:10012000943577050080841E080000204E0A0000E8
:1001300000C80C333333330F986E12831141EF8DA7
:100140002114893BE65516CFFEE6DB18D1844B38E7
:100150001BF77C1D901DA4BBE424203284725E2218
:100160008100C9F124ECA1E53D270001020304054B
:1001700000000000240027002A00000000002500E5
:1001800028002B00040404040404040402020202F4
:10019000020203030303030301020408102040804A
:1001A00001020408102001020408102000000008C9
:1001B000000201000003040700000000000000002E
:1001C000A50811241FBECFEFD8E0DEBFCDBF21E0D0
:1001D000A6E0B1E001C01D92A733B207E1F711E03C
:1001E000A0E0B1E0E8E0F5E102C005900D92A63094
:1001F000B107D9F710E0C1EED0E004C02197FE01AD
:100200000E947C0AC03ED107C9F70E949A060C944E
:10021000820A0C94000090E0FC01E455FE4F24910A
:10022000FC01E856FE4F3491FC01EC57FE4FE4917F
:10023000EE23C9F0222339F0233001F1A8F4213054
:1002400019F1223029F1F0E0EE0FFF1FE658FE4FC2
:10025000A591B4918FB7F894EC91611126C03095B7
:100260003E233C938FBF08952730A9F02830C9F072
:10027000243049F7809180008F7D03C080918000F9
:100280008F7780938000DFCF84B58F7784BDDBCFFD
:1002900084B58F7DFBCF8091B0008F778093B000C5
:1002A000D2CF8091B0008F7DF9CF3E2BDACF682F6F
:1002B00080911B0190911C0189130C940B010895EE
:1002C000682F80911C010E940B0180913301909155
:1002D00034018230910538F0880F991F880F991FDB
:1002E00005970197F1F7089581E00C946001CF9391
:1002F000DF9390E0FC01E856FE4F24918C579E4F0F
:10030000FC0184918823D1F090E0880F991FFC01B3
:10031000E059FE4FA591B491FC01E658FE4FC591FE
:10032000D49161110EC09FB7F8948C91E22FE095A3
:100330008E238C932881E223E8839FBFDF91CF91A6
:1003400008958FB7F894EC91E22BEC938FBFF6CF22
:100350008E50806480937C0080917A0080648093CA
:100360007A0080917A0086FDFCCF80917800909190
:10037000790008953FB7F8948091090190910A019E
:10038000A0910B01B0910C0126B5A89B05C02F3F91
:1003900019F00196A11DB11D3FBFBA2FA92F982FAB
:1003A0008827BC01CD01620F711D811D911D42E0A6
:1003B000660F771F881F991F4A95D1F708958EBD44
:1003C00000000DB407FEFDCF8EB50895CF93DF93E7
:1003D000D62FC42F682F84E00E940B016D2F85E07B
:1003E0000E940B016C2F86E0DF91CF910C940B01E2
:1003F0000F931F9300911D0110911E0120911F0169
:100400003091200140E052E16AE770E080E004179B
:1004100015072607370740F4769567955795479552
:100420008F5F8630A1F787E0982F906A9695809528
:1004300081709CBD8DBD80E01F910F910C94600177
:10044000CF93C82F0E94F8018C2F80620E94DF0199
:1004500080932101CF910C947401CF93C82F0E94F7
:10046000F8018C2F0E94DF01809321018FEF0E9401
:10047000DF01C82F0E9474018C2FCF9108950F9334
:100480001F93CF93182FC62F0E94F801812F8062EF
:100490000E94DF018093210100E011E0C15030F0A3
:1004A000F80181918F010E94DF01F8CFCF911F9158
:1004B0000F910C9474010E94F80180E50E94DF0105
:1004C0008093210183E70E94DF010C947401CF9394
:1004D000DF93D82FC62F0E94F8018D2F80620E94D3
:1004E000DF01809321018C2F0E94DF01DF91CF91EA
:1004F0000C947401CF92DF92EF92FF920F931F93AF
:10050000CF93DF9380912D01C0E0D8E0811107C027
:10051000C0912201DC2FC93008F0D8E0CD1B0E9429
:10052000F80180EA0E94DF018093210101E111E0DE
:10053000D15030F0F80181918F010E94DF01F8CF96
:10054000C15020F080E00E94DF01FACF0E947401C8
:1005500081E00E9457018FB7F894C0900D01D090B0
:100560000E01E0900F01F09010018FBF8FEF0E94FD
:10057000200280912101807309F52FB7F8948091B2
:100580000D0190910E01A0910F01B09110012FBFAC
:100590008C199D09AE09BF0980369105A105B105E9
:1005A00028F381E080932E0180E0DF91CF911F91AD
:1005B0000F91FF90EF90DF90CF90089580E00E9420
:1005C000570160E787E00E9467028091210184FF64
:1005D00004C081EE0E942002E7CF81E0E6CF1F92A7
:1005E0000F920FB60F9211242F933F938F939F93E7
:1005F000AF93BF9380910D0190910E01A0910F01D7
:10060000B09110013091080123E0230F2D3758F5E8
:100610000196A11DB11D2093080180930D019093B7
:100620000E01A0930F01B0931001809109019091E8
:100630000A01A0910B01B0910C010196A11DB11D01
:100640008093090190930A01A0930B01B0930C01D0
:10065000BF91AF919F918F913F912F910F900FBEBE
:100660000F901F90189526E8230F0296A11DB11D2B
:10067000D2CFAFE0B0E0EFE3F3E00C94C9086C0137
:100680001B015A01FC0117821682838181FF48C336
:100690009E012F5F3F4F4901F6019381F10193FDC8
:1006A000859193FF81911F01882309F4E7C2853268
:1006B00039F493FD859193FF81911F01853239F4BF
:1006C000B60190E00E94EE0935015301E5CFF12C0F
:1006D000512C00E0003238F48B3209F190F4803272
:1006E000F9F0833209F107FD34C020ED280F2A30DC
:1006F00020F506FF1BC0FAE0FF9E200D1124F22E0C
:1007000005C08D3279F0803371F70160F10193FDFE
:10071000859193FF81911F018111DCCF1AC0026086
:100720000460F4CF0860F2CF0061F0CF3AE0539E4E
:10073000200D1124522E0062E9CF8E3221F406FDE5
:100740009DC20064E3CF8C3611F40068DFCF883699
:10075000E9F29BEB980F933008F05FC00061805E78
:1007600006FD02C046E0F42E102F1F73853609F0F7
:100770005BC0106417FF61C08F2D9BE39F1508F4C9
:100780008BE344244394480E27E03501F4E06F0ED8
:10079000711CF5016081718182819381042DA40116
:1007A0000E9400095C01F981FC87F0FF03C00DE2A3
:1007B000F3FF07C00BE211FD04C0012F047012FD0E
:1007C00000E22C852C70E22E09F457C00111ABC257
:1007D000F3E0E12CF515A0F483E0E52CE81A13FD15
:1007E00008C0B60180E290E00E94EE09EA94E110B0
:1007F000F8CF002329F0B601802F90E00E94EE0987
:100800003C8528E6A22E20E0B22E33FD04C09CE6F3
:10081000A92E90E0B92E107122C09BE9980F933059
:1008200008F033C10F7E9CCF863611F41068A2CF3A
:10083000FF2009F49FCFFA949DCFE7E02F2DEF150D
:1008400018F427E037E0F32E412C9FCF111180528E
:10085000B60190E00E94EE098FEFA81AB80AF501E0
:1008600084918111F3CFEE2009F42FCFB60180E2FD
:1008700090E00E94EE09EA94F6CF17FF6FC04A0C91
:10088000FC85F4FF04C08A81813309F44A9414146E
:100890000CF086C028E0241510F488E0482E85E08E
:1008A00090E017FF06C0C501B7FE02C090E080E0EF
:1008B000019601110196FF2031F02F2D30E02F5FBE
:1008C0003F4F820F931F5816190619F014F0E52CAC
:1008D000E81A812F897011F4E11067C0002329F014
:1008E000B601802F90E00E94EE0913FD02C0E110D6
:1008F00063C017FF7CC08501B7FE02C010E000E0B6
:10090000C501841991092C016F2D70E0EE27FF2796
:10091000E61BF70BFF87EE870F3F100729F4B601A0
:100920008EE290E00E94EE09A016B1060CF44BC0D6
:10093000401651060CF047C0F501E01BF10BE80D25
:10094000F91D8181015011092E853F85021713077A
:10095000E4F1B60190E00E94EE09DECF16FD9FCFD4
:10096000EF2DF0E0EA15FB0534F03CEFA3163FEF66
:10097000B3060CF010683296E80DF91D01C0FA9428
:10098000FF2019F082918033D1F317FF88CF4424E0
:1009900043944F0CFA141B0431F02CF0FA187FCF5B
:1009A000442443947CCFF12C7ACFB60180E290E0CE
:1009B0000E94EE09EA9490CFB60180E390E00E9495
:1009C000EE09EA9494CF80E3BDCFA016B10641F4BE
:1009D0009A81963350F4953319F43C8534FF05C061
:1009E000B60190E00E94EE093ECF81E3F9CF8A8103
:1009F000813319F09C859F7E9C87B60190E00E9410
:100A0000EE09FF20A9F0B6018EE290E00E94EE0907
:100A1000F394F394E2E001E00E0FE80DF92DF11DDF
:100A20008081B60190E00E94EE09E02F0F11F3CF14
:100A300085E690E014FF02C085E490E0B6010E94D4
:100A4000EE09B7FC06C0A114B104C1F4EC85E4FFC3
:100A500015C0B194A194B1088DE2B60190E00E9456
:100A6000EE0980E32AE0A216B10454F4B60190E046
:100A70000E94EE09B601C501C096B4CF8BE2EDCF5E
:100A80008F5FFAE0AF1AB108EDCF8336C9F0833734
:100A900071F1833509F05BC03501F2E06F0E711C16
:100AA000F501A080B1806F2D70E006FD02C06FEFF0
:100AB0007FEFC5010E94D8099D878C8700680DC013
:100AC000350132E0630E711CF5018081898321E0DC
:100AD00030E03D872C8754010F7703FD06C02C853D
:100AE0003D855216130609F0A8F4E52C2BC03501FC
:100AF00032E0630E711CF501A080B1806F2D70E0B3
:100B000006FD02C06FEF7FEFC5010E94E3099D87DC
:100B10008C87E2CFB60180E290E00E94EE095A9401
:100B2000DECFF50107FD859107FF81915F01B601D9
:100B300090E00E94EE09E110EA948C859D85019772
:100B40009D878C87EC85FD85EF2B59F78CCE8436FD
:100B500019F0893609F074C0350107FF66C0F4E06A
:100B60006F0E711CF5016081718182819381102F5C
:100B70001F7697FF08C090958095709561957F4F7F
:100B80008F4F9F4F10682AE030E0A4010E941E0A98
:100B9000A82EA818BA2C012F16FF0AC00E7FAF147A
:100BA00038F414FF04C012FD02C0012F0E7EBF2CCA
:100BB00004FF8EC0FE01EA0DF11D8081803309F033
:100BC00080C0097EF02FF870EF2E03FD90C000FF6B
:100BD0008AC0FA2CB51410F4F50CFB1804FF8DC074
:100BE000B60180E390E00E94EE0902FF09C088E7A9
:100BF00090E001FF02C088E590E0B6010E94EE0996
:100C0000AF1408F486C0AA940A2D10E00F5F1F4F9E
:100C1000080D191DF80182918F01B60190E00E9424
:100C2000EE0980169106B1F71ECEF2E06F0E711C30
:100C3000F50160817181072E000C880B990B97CF0D
:100C4000102F8537A9F41F7E2AE030E0350117FF09
:100C50002FC0F4E06F0E711CF501608171818281FB
:100C60009381A4010E941E0AA82EA8181F7792CF74
:100C7000197F8F36D1F048F4883591F0F6018681DE
:100C800097812F96E2E10C94E508803739F0883798
:100C9000A9F714FD146020E130E0D8CF1061F9CF3E
:100CA00004FD166020E132E0D1CF28E030E0CECF65
:100CB000F2E06F0E711CF5016081718190E080E0BF
:100CC000D0CF02FD02C0B3947DCFB394B3947ACF5A
:100CD000802F867809F476CFF6CFB60180E290E0D7
:100CE0000E94EE09B394B514C0F3E12C77CFE52C44
:100CF000EB18B51408F472CFF8CF802F867809F47A
:100D00007FCF8BE201FF80E207FD8DE2B60190E02C
:100D100075CFB60180E390E00E94EE09FA9470CF9F
:100D20008FEF9FEFAECF24E0E12C251508F063CDC7
:100D300084E053CD789484B5826084BD84B58160AD
:100D400084BD85B5826085BD85B5816085BD809196
:100D50006E00816080936E0010928100809181000E
:100D60008260809381008091810081608093810006
:100D7000809180008160809380008091B1008460C8
:100D80008093B1008091B00081608093B000809129
:100D90007A00846080937A0080917A0082608093E8
:100DA0007A0080917A00816080937A0080917A0045
:100DB000806880937A001092C10061E084E00E9414
:100DC000770161E085E00E94770161E086E00E94A2
:100DD000770150E040E070E060E081E090E00E9448
:100DE000E601BEE82B2EB1E03B2E02EA11E0C5E59C
:100DF0004C2E512C612C712CCBE1DEE4FFB6F89423
:100E000080910701811125C0F1018491F80194912D
:100E1000E82FF0E0EE0FFF1FE059FE4FA591B491CF
:100E20008C91982321F461E08AE00E940B0161E03B
:100E30008AE00E9477018CB580618CBD8CB580649E
:100E40008CBD61E08DE00E94770161E08BE00E9443
:100E50007701809107018F5F80930701FFBE80912A
:100E60001B018F3F09F4CACF90911C019F3F09F4E9
:100E7000C5CF891741F061E00E94770161E0809160
:100E80001C010E94770180E00E94570181E00E94CE
:100E900060010E94BA016B017C01E5E08E2E912C6D
:100EA000A12CB12C0E94BA016C197D098E099F09F1
:100EB000683E734081059105A8F3F1E08F1A91080F
:100EC000A108B10828EEC20E23E0D21EE11CF11CDD
:100ED00081149104A104B10429F76FE584E00E9414
:100EE000670286E00E942D0240922F01509230014D
:100EF0006092310170923201682F677D86E00E9416
:100F0000670286E00E942D028DE10E942D02F82EDC
:100F10000E945B028DE10E942D0291E0F81290E0A8
:100F200090932901882341F0F81202C00E945B02CD
:100F300060E08DE10E94670210922B0160E08CE17D
:100F40000E94670210922D016FE381E00E94670208
:100F500063E082E00E94670280E28093220171E1F7
:100F6000F72E609122018F2D0E946702F394E7E132
:100F7000FE12F7CF63E083E00E946702F5E0F09392
:100F80002C016CE485E00E94670260E787E00E9424
:100F9000670282EE0E94200281EE0E9420026CE035
:100FA00080E00E94670280E00E942D028093280169
:100FB00081FD0AC0682F62606093280180E00E9472
:100FC0006702CE010197F1F7809128018E3009F078
:100FD00015CF41E050E070E060E090E080E00E94DA
:100FE000E60160912C018AE00E943F0260912C0191
:100FF00080E10E943F0280E00E94570180912F0112
:10100000909130018230910538F0880F991F880F38
:10101000991F05970197F1F780912B01882319F00B
:1010200081EE0E942002609128016E7F609328016A
:1010300080E00E94670282E00E942D02EAE6F1E071
:10104000E49161E070E001C0660FEA95EAF7682B71
:1010500082E00E94670286E00E942D02887F682F4E
:10106000616086E00E9467026BE485E00E9467028F
:1010700060E080E10E94770160E081E10E947701F9
:1010800060E08FE00E94770160E08EE00E947701CF
:101090000E947A028823E1F350E040E061E070E0D2
:1010A00090E080E00E94E601CFEFD0E000E010E0A9
:1010B0008FE00E94A80197FD0196959587958F5F17
:1010C000910990931201809311018EE00E94A80172
:1010D00097FD0196959587958F5F910990931401DF
:1010E0008093130180E10E94A801959587959595BD
:1010F00087959E01281B390B30931601209315010B
:1011000081E10E94A8019595879595958795FE01A7
:10111000E81BF90BF0931801E09317010E947A0283
:1011200050E040E061E070E0811104C041E050E037
:1011300070E060E090E080E00E94E601011511059A
:1011400009F4B6CF0E940000B3CFE9E1F1E08AE0F4
:10115000828389E0838380E896E9A8E9B0E084830C
:101160009583A683B78380E28187108A118A85E000
:10117000838B81E0848B85E090E0A0E0B0E0828FFB
:10118000938FA48FB58F86E091E091838083128640
:1011900008952F923F924F925F926F927F928F921B
:1011A0009F92AF92BF92CF92DF92EF92FF920F93F6
:1011B0001F93CF93DF93CDB7DEB7CA1BDB0B0FB600
:1011C000F894DEBF0FBECDBF09942A8839884888BD
:1011D0005F846E847D848C849B84AA84B984C88453
:1011E000DF80EE80FD800C811B81AA81B981CE0F4A
:1011F000D11D0FB6F894DEBF0FBECDBFED0108952F
:10120000283008F027E03327DA01990F311D87FDD8
:10121000916000966105710539F432602E5F3D934F
:1012200030E32A95E1F708959F3F30F0803871054B
:10123000610509F03C5F3C5F3D93913008F08068A8
:10124000911DDF93CF931F930F93FF92EF92192F6E
:10125000987F9695E92F96959695E90FFF27E65387
:10126000FF4F99273327EE24FF24A701E7010590BC
:101270000894079428F4360FE71EF81E491F511DE5
:10128000660F771F881F991F0694A1F70590079492
:1012900028F4E70EF81E491F561FC11D770F881F3F
:1012A000991F661F0694A1F70590079428F4F80E7D
:1012B000491F561FC71FD11D880F991F661F771F13
:1012C0000694A1F70590079420F4490F561FC71FF5
:1012D000D81F990F661F771F881F0694A9F784915E
:1012E0001095177041F0D695C79557954795F79487
:1012F000E7941A95C1F7E0E7F0E06894159015912E
:1013000035916591959105907FE27395E118F10A09
:10131000430B560BC90BD009C0F7E10CF11E431F5C
:10132000561FC91FD01D7EF4703311F48A95E6CF85
:10133000E894015030F0080F0AF40027021708F46F
:10134000202F2395022F7A3328F079E37D932A9575
:10135000E9F710C07D932A9589F6069497956795CD
:10136000379517951794E118F10A430B560BC90BE3
:10137000D00998F023957E9173957A3308F070E345
:101380007C932013B8F77E9170617D9330F0839544
:1013900071E37D9370E32A95E1F71124EF90FF90BC
:1013A0000F911F91CF91DF91992787FD9095089517
:1013B000FC010590615070400110D8F78095909520
:1013C0008E0F9F1F0895FC01615070400190011025
:1013D000D8F7809590958E0F9F1F08950F931F93B8
:1013E000CF93DF93182F092FEB018B8181FD09C06B
:1013F0001FEF0FEF812F902FDF91CF911F910F9152
:10140000089582FF14C02E813F818C819D81281711
:1014100039073CF4E881F981CF01019699838883EB
:1014200010838E819F8101969F838E83E3CFE88511
:10143000F985812F0995892BA1F3DACFFA01AA2723
:10144000283051F1203181F1E8946F936E7F6E5F07
:101450007F4F8F4F9F4FAF4FB1E03ED0B4E03CD0B5
:10146000670F781F891F9A1FA11D680F791F8A1F98
:10147000911DA11D6A0F711D811D911DA11D20D0FF
:1014800009F468943F912AE0269F11243019305DB9
:101490003193DEF6CF010895462F4770405D4193AA
:1014A000B3E00FD0C9F7F6CF462F4F70405D4A33F7
:1014B00018F0495D31FD4052419302D0A9F7EACFBF
:1014C000B4E0A6959795879577956795BA95C9F7EE
:1014D00000976105710508959B01AC010A2E0694E1
:1014E0005795479537952795BA95C9F7620F731F9A
:1014F000841F951FA01D0895EE0FFF1F0590F49106
:08150000E02D0994F894FFCFDF
:0615080063303030303189
:00000001FF
