:10000000AEC10000DDC10000DBC10000D9C10000AD
:10001000D7C10000D5C10000D3C10000D1C100008C
:10002000CFC10000CDC10000CBC10000C9C100009C
:10003000C7C10000C5C10000C3C10000C1C10000AC
:10004000BFC10000BDC10000BBC10000B9C10000BC
:10005000B7C10000B5C10000B3C100000C943F0E51
:10006000AFC100000C94B00B0C94860BA9C100002A
:10007000A7C10000A5C10000A3C10000A1C10000EC
:100080009FC100009DC100009BC1000099C10000FC
:1000900097C1000095C1000093C100000C94FA0EB6
:1000A0008FC100008DC100008BC1000089C100001C
:1000B00087C1000085C1000083C1000081C100002C
:1000C0007FC100007DC100007BC1000079C100003C
:1000D00077C1000075C1000073C1000071C100004C
:1000E0006FC10000400B430B320B360B3C0B7A0BFD
:1000F000470B4B0B510B550B590B5F0B630B670BEE
:100100007A0B6D0B710B750B770C7C0C810C8B0CC7
:10011000950C0E0D9F0CA70CAF0CB90CC30CCD0C9D
:10012000DC0CE60C0E0DF00CFA0C040D6E616E008A
:10013000696E660000407A10F35A00A0724E1809EA
:100140000010A5D4E80000E87648170000E40B543E
:10015000020000CA9A3B000000E1F505000080960D
:100160009800000040420F000000A086010000003F
:10017000102700000000E8030000000064000000F9
:1001800000000A00000000000100000000002C76C2
:10019000D888DC674F0823DFC1DFAE59E1B1B796DD
:1001A000E5E3E453C63AE651997696E8E6C284263A
:1001B000EB898C9B62ED407C6FFCEFBC9C9F40F216
:1001C000BAA56FA5F490055A2AF75C936B6CF96792
:1001D0006DC11BFCE0E40D47FEF520E6B500D0ED57
:1001E000902E0300943577050080841E08000020BF
:1001F0004E0A000000C80C333333330F986E12835D
:100200001141EF8D2114893BE65516CFFEE6DB1830
:10021000D1844B381BF77C1D901DA4BBE4242032F5
:1002200084725E228100C9F124ECA1E53D270A0B0E
:100230000C0D0E0F00002100240027002A002D00C5
:100240003000330001010000040107010A01000031
:100250002200250028002B002E003100340002016E
:100260000000050108010B0100002000230026000A
:1002700029002C002F0032000001000003010601BC
:10028000090105050505070508080808020202021C
:100290000A0A080804040404010101010101010122
:1002A0000303030303030303040707070C0C0C0CED
:1002B0000C0C0C0C020202020606060606060606D6
:1002C0000B0B0B0B0B0B0B0B010210202008081063
:1002D00020401020408002010201080402010102B6
:1002E000040810204080804020100804020180048F
:1002F00002018040201008040201080402010102EA
:1003000004081020408001020408102040800000F2
:100310000A0B02090C0D0E0807030401000000007F
:1003200000000000000000000000000000000000CD
:10033000000000000000000000001211100000008A
:1003400000000000000000000000000000000000AD
:1003500000000000000102030405E01D141911242F
:100360001FBECFEFD1E2DEBFCDBF00E00CBF24E067
:10037000A6EEB2E001C01D92AF3CB207E1F712E079
:10038000A0E0B2E0E0E6F6E400E00BBF02C00790B8
:100390000D92A63EB107D9F711E0CEEAD1E000E018
:1003A00006C021970109802FFE010E94E321CD3A6A
:1003B000D10780E00807A9F70E944A190C941F236F
:1003C0001FCE08950895089508952F923F924F9259
:1003D0005F926F927F928F929F92AF92BF92CF92D5
:1003E000DF92EF92FF920F931F93CF93DF9300D092
:1003F0001F92CDB7DEB7DC014B01042F16969C91FE
:10040000169717968C91179799838A83ED90FC9095
:100410001197E114F10409F42FC119964C9150E0A1
:10042000D70114968D919C9115978417950710F418
:10043000B12C56C1F701808191E090930F03809316
:100440000E031092ED021092EC0220E0BE016F5FED
:100450007F4FC7010E941612B82E882349F3202E21
:10046000312CC12CD12CC214D30408F039C1D701CE
:1004700014968D919C91159781010C191D09801777
:10048000910708F48C01F701F081FC830E940E0EA5
:100490002B013C01A0903603AA2039F18091310351
:1004A00090913203A0913303B0913403892B8A2BAE
:1004B0008B2B81F30E940E0E209131033091320379
:1004C0004091330350913403DC01CB018419950929
:1004D000A609B709281739074A075B07D8F680919C
:1004E00030030E94A50EA12CA2C00B83013210F094
:1004F00090E29B83A1E0A093360321E0C101801B21
:10050000910BC816D90608F420E020933803BFEFFA
:10051000B093350310925A038B8181508093590315
:10052000E1E0E0935B0380915B039C81990F892B51
:1005300080935B0380913703813099F510923703E4
:100540000E940E0E2B013C0180915B038093BB0047
:100550008091310390913203A0913303B091340321
:10056000892B8A2B8B2BA9F00E940E0E2091310330
:10057000309132034091330350913403DC01CB01BD
:1005800084199509A609B709281739074A075B078F
:10059000A0F18091BC0083FDD7CFF5ECF093BC00B7
:1005A00003C085EE8093BC000E940E0E2B013C011F
:1005B00080913603813031F580913103909132037F
:1005C000A0913303B0913403892B8A2B8B2B81F3B9
:1005D0000E940E0E2091310330913203409133037B
:1005E00050913403DC01CB0184199509A609B709A0
:1005F000281739074A075B07D8F6809130030E9415
:10060000A50E15C080915A039B81891718F4A091FB
:100610005A03AB83E9E3F3E0A0E1B3E080E09B8120
:10062000891721F091919D938F5FF9CFA82E109299
:10063000EF02A092EE028A2D90E00817190709F048
:10064000F7CE34016C0C7D1C2301C2018619970979
:100650008017910708F041C0D70111968D919C91A8
:100660001297DC01ED91FC910284F385E02D199540
:10067000F20181932F01E9CF1296ED91FC9113972E
:10068000309709F4D5CE14962D913C911597199673
:100690004C9110E02330310539F4816089839A83CD
:1006A00050E04F5F5F4F10C02115310511F4906885
:1006B00009C02230310511F49F7704C02130310583
:1006C00011F4906C998350E09401BE016F5F7F4FED
:1006D000CF010E946714B82E03C0C00ED11EC3CE36
:1006E0008B2D0F900F900F900F90DF91CF911F9156
:1006F0000F91FF90EF90DF90CF90BF90AF909F90C1
:100700008F907F906F905F904F903F902F900895C3
:100710000C9483220C9483220C9483220F931F93B6
:10072000CF93DF938C01EB0188E2FB0111928A9554
:10073000E9F74BE050E067E672E0CE010E9410233B
:100740001B8681E090E0A0E0B0E08C879D87AE87BB
:10075000BF87F80182819381092E000CAA0BBB0B85
:10076000888B998BAA8BBB8B8DE090E0A0E0B0E0EA
:100770008C8B9D8BAE8BBF8B1CA21DA21EA21FA2B9
:1007800080E090E0A0E2B2EC8C8F9D8FAE8FBF8FA7
:1007900080E090E0A2EDB2E4888F998FAA8FBB8FA2
:1007A00084E09DEAA0E4BBE388A399A3AAA3BBA32A
:1007B000DF91CF911F910F9108950F931F93CF93C6
:1007C000DF938C01EB0188E2FB0111928A95E9F736
:1007D0004BE050E061E772E0CE010E9410231B86DF
:1007E00041E050E060E070E04C875D876E877F8776
:1007F000F80182819381092E000CAA0BBB0B888B18
:10080000998BAA8BBB8B4C8B5D8B6E8B7F8B1CA2C9
:100810001DA21EA21FA28AE098EEACE1B3EC8C8F61
:100820009D8FAE8FBF8F8AE098EEACE1B3E4888FE6
:10083000998FAA8FBB8F83E29BEDA9E7BDE388A3C5
:1008400099A3AAA3BBA3DF91CF911F910F91089504
:100850000F931F93CF93DF938C01EB0188E2FB0191
:1008600011928A95E9F74BE050E06BE772E0CE0118
:100870000E9410231B8681E090E0A0E0B0E08C870E
:100880009D87AE87BF87F80182819381092E000C76
:10089000AA0BBB0B888B998BAA8BBB8B84E090E057
:1008A000A0E0B0E08C8B9D8BAE8BBF8B1CA21DA2F9
:1008B0001EA21FA287ED93EAABE0B2EC8C8F9D8F56
:1008C000AE8FBF8F87ED93EAABE0B2E4888F998F4C
:1008D000AA8FBB8F8AE99BEAABE0B9E388A399A30F
:1008E000AAA3BBA3DF91CF911F910F910895CF933E
:1008F000DF93EC01BC01655F7F4F488566DD88238F
:10090000D9F08885FE01E80FF11DDE0140E050E0DE
:10091000BA01EC17FD07A9F0762F652F542F442755
:100920008A85811102C0828503C01B968C911B971A
:10093000482B31971196EDCF3FEF2FEF8FEF9FEFC1
:1009400003C0342F252FCB01632F722FDF91CF915E
:100950000895AF92BF92CF92DF92EF92FF920F93E2
:100960001F93CF93DF931F921F92CDB7DEB78C01F9
:10097000211103C0DC0118962C91253008F096C097
:10098000F8014787508B618B728BE22EF12CD801D6
:10099000AE0DBF1DC801A017B10789F0F80122856F
:1009A000211103C0FC01438703C01A964C931A9788
:1009B000452F562F672F772701961197ECCF6D01A2
:1009C000FBE0CF0ED11C16969C91169717968C9132
:1009D000179799838A83AD90BC901197A114B104A5
:1009E000A9F119960C9110E098012E0D3F1DD5012B
:1009F00014968D919C9115978217930708F456C011
:100A0000F501808191E090930F0380930E03109283
:100A1000ED021092EC020115110539F421E0A70155
:100A2000B601C5010E94161242C081819281DC018B
:100A3000ED91FC910280F381E02DA801BE016F5F72
:100A40007F4F19950817190789F5E8CF1296ED9190
:100A5000FC911397309751F114962D913C91159775
:100A600019960C912330310539F48E7F89839A834E
:100A700010E00F5F1F4F11C02115310511F49F7752
:100A80000AC02230310511F4906805C021303105CB
:100A900019F49F779064998310E09E012F5F3F4F78
:100AA000A701B601CF010E94E11101C080E00F90C3
:100AB0000F90DF91CF911F910F91FF90EF90DF90FA
:100AC000CF90BF90AF9008959F92AF92BF92CF9278
:100AD000DF92EF92FF920F931F93CF93DF93CDB7E7
:100AE000DEB7AA970FB6F894DEBF0FBECDBF8C015C
:100AF000DC0197965C934E939697CA01019699965E
:100B00009C938E9398974E5F5F4F9B965C934E930A
:100B10009A975E962D913C915F971BA21CA21DA2F5
:100B20001EA23D8B2C8B1F8A1E8A81E08D8F4BE687
:100B300050E05B8F4A8F1E8E8C8F188A198A1A8A12
:100B40001B8A3A8329831C821B828A8728E630E02D
:100B500038872F831B8689875E01B4E1AB0EB11CF9
:100B6000B8A6AFA289A787E08AA741E050E060E07D
:100B700070E0CE0187960E949D14CE0187960E9458
:100B80006F12613071058105910531F461E070E00B
:100B900080E090E057D7F1CF64E670E080E090E02D
:100BA00051D720E047E050E060E070E0FE01319670
:100BB0006F01CF01CEDE64E670E080E090E042D7C6
:100BC000D8015E968D919C915F97188A198A1A8A2E
:100BD0001B8A9A8389831C821B82FF24F394FA86E2
:100BE00089E190E098878F831B86F98620E040E0BA
:100BF00050E0BA01C601ADDEF801868D978D188AE6
:100C0000198A1A8A1B8A9A8389831C821B82FA8614
:100C10008AE190E098878F831B86F986DD8ACC8AEB
:100C200083E0E82EEE8A1F8A40E050E0BA01C50159
:100C30000E949D14D8015E968D919C915F97188AB1
:100C4000198A1A8A1B8A9A8389831C821B82FA86D4
:100C50008BE190E098878F831B86F986DD8ACC8AAA
:100C600092E0992E9E8AEF8A41E050E060E070E0C9
:100C7000C5010E949D14F801868D978D188A198AE6
:100C80001A8A1B8A9A8389831C821B82FA868CE1CA
:100C900090E098878F831B86F986DD8ACC8A9E8AAE
:100CA000EF8A40E050E0BA01C5010E949D14D801CE
:100CB0005E968D919C915F97188A198A1A8A1B8A71
:100CC0009A8389831C821B82FA868BE690E0988740
:100CD0008F831B86F98620E041E050E060E070E001
:100CE000C60137DE64E670E080E090E0ABD6F80144
:100CF00080A191A1009739F0DC01ED91FC91028077
:100D0000F381E02D1995F80182A193A1009739F0A4
:100D1000DC01ED91FC910280F381E02D1995F80141
:100D200084A195A1009739F0DC01ED91FC9102803E
:100D3000F381E02D199586E090E00E94EB21FC0103
:100D400086E192E09183808380E596E093838283BD
:100D500015830483D8019196FC93EE93909786E0D7
:100D600090E00E94EB21FC0184E292E09183808379
:100D700081E596E09383828315830483D80193965B
:100D8000FC93EE93929786E090E00E94EB21FC01A9
:100D900082E392E09183808382E596E0938382836D
:100DA00015830483D8019596FC93EE93949781E084
:100DB000AA960FB6F894DEBF0FBECDBFDF91CF91DC
:100DC0001F910F91FF90EF90DF90CF90BF90AF9069
:100DD0009F900895AF92BF92CF92DF92EF92FF92D1
:100DE0000F931F93CF93DF93CDB7DEB7E8970FB67E
:100DF000F894DEBF0FBECDBF8C01FC01868D978DB0
:100E00001BA21CA21DA21EA29D8B8C8B1F8A1E8A58
:100E1000FF24F394FD8E8BE390E09B8F8A8F1E8ED0
:100E20008EE08C8F4EE0BE01695D7F4FCE0144960F
:100E3000CCDA8FA198A5982789279827F80195A73C
:100E400084A789A59AA598278927982797A786A771
:100E50008BA59CA598278927982791AB80AB6DA57A
:100E60007EA576276727762773AB62AB8FA598A9F7
:100E700098278927982795AB84AB89A99AA99827A1
:100E80008927982797AB86AB8BA99CA99827892798
:100E9000982791AF80AF072E000C880B990B0E940A
:100EA000D22020E030E04AEA53E40E94372028EBC9
:100EB0003EE142E152E40E94D31FF8016283738352
:100EC00084839583868D978D188A198A1A8A1B8A3E
:100ED0009A8389831C821B82FA868CE190E0988732
:100EE0008F831B86F986CE0101965C019EAB8DAB8C
:100EF00082E08FAB83E088AFCE01C5960E946F126F
:100F00006330710579F06230710591F061307105DF
:100F1000B1F0672BD1F0C12CD12CF0E8EF2EFFE31C
:100F2000FF2E19C0C12CD12CE12CE5E4FE2E13C0FC
:100F3000C12CD12C70E8E72E75E4F72E0CC0C12C23
:100F4000D12CE12C66E4F62E06C0C12CD12C50E841
:100F5000E52E56E4F52EF80164A575A5072E000CC4
:100F6000880B990B0E94D220A70196010E9437207E
:100F7000F801668377838087918766A577A5072E1A
:100F8000000C880B990B0E94D220A70196010E94A9
:100F90003720F801628773878487958760A971A9D4
:100FA000072E000C880B990B0E94D220A7019601F6
:100FB0000E943720F80166877787808B918B868D1A
:100FC000978D188A198A1A8A1B8A9A8389831C82A8
:100FD0001B8281E08A872BE130E038872F831B86D4
:100FE0008987BEAAADAA82E08FAB83E088AFCE012D
:100FF000C5960E946F126115710581F0613071050F
:10100000A1F062307105C1F063307105E9F0C12CC7
:10101000D12C40E8E42E4FE3F42E1DC0C12CD12C7E
:1010200033E0E32E33E4F32E16C0C12CD12C23E899
:10103000E22E22E4F22E0FC093E3C92EDC2C93E0C3
:10104000E92E92E4F92E07C083E3C82EDC2C83E856
:10105000E82E81E4F82EF80164A975A9072E000C8A
:10106000880B990B0E94D220A70196010E9437207D
:10107000F801628B738B848B958B66A977A9072EF9
:10108000000C880B990B0E94D220A70196010E94A8
:101090003720F801668B778B808F918F60AD71ADB3
:1010A000072E000C880B990B0E94D220A7019601F5
:1010B0000E943720F801628F738F848F958FE89696
:1010C0000FB6F894DEBF0FBECDBFDF91CF911F9159
:1010D0000F91FF90EF90DF90CF90BF90AF90089569
:1010E0000F931F93CF93DF938C01EB01DC011496D8
:1010F0008D919C9115976EDEB6D5D8011496ED9121
:10110000FC91159724E2DE011D922A95E9F704E28D
:1011100010E020E030E0088319832A833B8322A576
:1011200033A5890120E030E00C831D832E833F83AB
:101130000DE010E020E030E0088719872A873B8720
:10114000688B798B8A8B9B8B82819381A481B581FB
:101150008C8B9D8BAE8BBF8B81E0DF91CF911F91EC
:101160000F9108958F929F92AF92BF92CF92DF928C
:10117000EF92FF920F931F93CF93DF938C01EB01BC
:10118000FC018481958126DE6ED5F80104811581EC
:1011900024E2FE0111922A95E9F7C12CD12C7601A7
:1011A000C394C882D982EA82FB82F80126A137A1C2
:1011B0004901A12CB12C8C829D82AE82BF82C8864F
:1011C000D986EA86FB86688B798B8A8B9B8B2AE093
:1011D00038EE4CE151E466817781808591850E94EB
:1011E0005E216C8B7D8B8E8B9F8B2AE038EE4CE1E1
:1011F00051E4F80162857385848595850E945E219E
:10120000688F798F8A8F9B8F2AE038EE4CE151E40A
:10121000F80166857785808991890E945E216C8FAF
:101220007D8F8E8F9F8F81E0DF91CF911F910F91E6
:10123000FF90EF90DF90CF90BF90AF909F908F90F6
:101240000895CF92DF92EF92FF920F931F93CF9367
:10125000DF938C01EB01FC0184819581BBDD03D51B
:10126000F8010481158124E2FE0111922A95E9F723
:10127000C12CD12C7601C394C882D982EA82FB8228
:10128000F80120A531A56901E12CF12CCC82DD8289
:10129000EE82FF8234E0C32ED12CE12CF12CC886E3
:1012A000D986EA86FB86688B798B8A8B9B8B25E3B4
:1012B0003AEF4EE85CE362897389848995890E94DC
:1012C0005E216C8B7D8B8E8B9F8B25E33AEF4EE8F6
:1012D0005CE3F80166897789808D918D0E945E219B
:1012E000688F798F8A8F9B8F25E33AEF4EE85CE316
:1012F000F801628D738D848D958D0E945E216C8FB7
:101300007D8F8E8F9F8F81E0DF91CF911F910F9105
:10131000FF90EF90DF90CF9008958FB7F894809171
:10132000E7028FBF08958EBD00000DB407FEFDCF0C
:101330008EB508958CBD9DBD08951F93CF93DF9307
:10134000EC01162F0E944514612FCE010E94DD137F
:10135000C82F0E94B3138C2F90E0DF91CF911F9183
:101360000895CF93DF93EB0166277727681B790BEE
:101370001616170634F485E093D260E070E082E040
:1013800006C0BC0182E08CD260E070E085E088D2CB
:101390001C161D063CF4BE0183E082D260E070E0C2
:1013A00084E009C0662777276C1B7D0B84E078D228
:1013B00060E070E083E0DF91CF9172C2CF93DF9362
:1013C000D62FC42F682F88E001D26D2F87E0FED181
:1013D0006C2F86E0DF91CF91F9C19F92AF92BF92BF
:1013E000CF92DF92EF92FF920F931F93CF93DF93F1
:1013F000C7EBD2E00DEF12E025E5C22ED12CE12C97
:10140000F12C30E2B32E45E0A42E9FB6F8948091E3
:10141000E602811122C0FE018491F8012491E82F97
:10142000F0E0EE0FFF1FEC5CFD4FA591B4919C9195
:10143000822F892319F461E085E3C8D161E085E357
:10144000F3D18CB580618CBD8CB580648CBD61E0BE
:1014500084E3EAD161E083E3E7D18091E6028F5F24
:101460008093E6029FBE8091AE048F3F09F4CDCFFA
:101470009091AF049F3F09F4C8CF891731F061E024
:10148000D3D161E08091AF04CFD180E00E94AB1353
:1014900081E00E94101365E070E080E090E0D2D21D
:1014A0006FE584E00E94511386E00E946213C092AF
:1014B000C204D092C304E092C404F092C504682F21
:1014C000677D86E00E94511386E00E9462138DE1E1
:1014D0000E946213982E0E94A1138DE10E94621354
:1014E00091E0981290E09093BC04882341F0981208
:1014F00002C00E94A11360E08DE10E94511310927E
:10150000BE0460E08CE10E9451131092C0046FE3AE
:1015100081E00E94511363E082E00E945113B09277
:10152000B50481E1982E6091B504892D0E94511374
:101530009394F7E19F12F7CF63E083E00E94511389
:10154000A092BF046CE485E00E94511360E787E03D
:101550000E94511382EE0E94461381EE0E944613B0
:101560006CE080E00E94511380E00E94621380933F
:10157000BB040E9493138091BB048E3009F045CFC9
:10158000EFE2F2E084914091BF046CE072E00E94CF
:10159000721382E00E946213E5E5F3E0E49161E0FA
:1015A00070E001C0660FEA95EAF7682B82E00E94BE
:1015B00051134091BF0466E072E08AE00E9472130A
:1015C0004091BF0466E072E080E10E94721386E001
:1015D0000E946213887F682F616086E0DF91CF915F
:1015E0001F910F91FF90EF90DF90CF90BF90AF9041
:1015F0009F900C945113CF92DF92EF92FF920F9332
:101600001F93CF93DF936C017A018B01C0E0D0E090
:10161000CE15DF0581F0D8016D918D01D601ED91D8
:10162000FC910190F081E02DC6011995892B11F0F4
:101630002196EECF7E01C701DF91CF911F910F91CF
:10164000FF90EF90DF90CF90089590E0FC013197EC
:10165000E231F10508F04EC08827EE58FF4F8F4F5A
:101660000C94E321809180008F7703C080918000EB
:101670008F7D80938000089580918000877FF9CFCF
:1016800084B58F7702C084B58F7D84BD0895809125
:10169000B0008F7703C08091B0008F7D8093B00041
:1016A0000895809190008F7707C0809190008F7D82
:1016B00003C080919000877F80939000089580916F
:1016C000A0008F7707C08091A0008F7D03C080911C
:1016D000A000877F8093A0000895809120018F77DC
:1016E00007C0809120018F7D03C080912001877FFA
:1016F0008093200108950E940C2389EC93E04CD73D
:1017000021E0892B09F420E0822F08951F920F9287
:101710000FB60F9211240BB60F922F933F934F9356
:101720005F936F937F938F939F93AF93BF93EF9349
:10173000FF9389EC93E00E94F614FF91EF91BF9123
:10174000AF919F918F917F916F915F914F913F9159
:101750002F910F900BBE0F900FBE0F901F901895FA
:101760001F920F920FB60F9211240BB60F922F9368
:101770008F939F93EF93FF93E091D903F091DA0356
:101780008081E091DF03F091E00382FD12C090813F
:101790008091E2038F5F8F732091E303821751F0F2
:1017A000E091E203F0E0E753FC4F958F8093E20372
:1017B00001C08081FF91EF919F918F912F910F90A8
:1017C0000BBE0F900FBE0F901F9018951F93CF93D5
:1017D000DF93282F30E0F901E25FFC4F8491F9019B
:1017E000E853FD4FD491F901EE57FD4FC491CC233E
:1017F000B9F0162F811129DFEC2FF0E0EE0FFF1F5B
:10180000E25BFD4FA591B4919FB7F894111104C00C
:101810008C91D095D82302C0EC91DE2BDC939FBF36
:10182000DF91CF911F910895CF93DF9390E0FC015A
:10183000E853FD4F2491FC01EE57FD4F849188231E
:1018400061F190E0880F991FFC01EC5CFD4FC591A0
:10185000D491FC01E25BFD4FA591B491611109C0E7
:101860009FB7F8948881209582238883EC912E235A
:101870000BC0623061F49FB7F8948881322F3095A5
:1018800083238883EC912E2B2C939FBF06C08FB7A8
:10189000F894E8812E2B28838FBFDF91CF91089594
:1018A0001F93CF93DF93182FEB0161E0BDDF2097EB
:1018B00011F460E004C0CF3FD10531F461E0812F25
:1018C000DF91CF911F9182CFE12FF0E0E25FFC4FDB
:1018D000E4918E2F90E0FC013197E231F10508F0A0
:1018E0009DC08827EC57FF4F8F4F0C94E32184B5A0
:1018F000806884BDC7BD97C084B5806284BDC8BD03
:1019000092C080918000806880938000D09389008D
:10191000C093880088C0809180008062809380009E
:10192000D0938B00C0938A007EC080918000886035
:1019300080938000D0938D00C0938C0074C0809100
:10194000B00080688093B000C093B3006CC08091F9
:10195000B00080628093B000C093B40064C08091F6
:101960009000806880939000D0939900C093980075
:101970005AC080919000806280939000D0939B0029
:10198000C0939A0050C0809190008860809390002E
:10199000D0939D00C0939C0046C08091A0008068B9
:1019A0008093A0008091A0008F7B8093A000D093B3
:1019B000A900C093A80037C08091A00080628093E6
:1019C000A000D093AB00C093AA002DC08091A000CE
:1019D00088608093A000D093AD00C093AC0023C07A
:1019E00080912001806880932001D0932901C093C9
:1019F000280119C080912001806280932001D0933A
:101A00002B01C0932A010FC0809120018860809330
:101A10002001D0932D01C0932C0105C0C038D10501
:101A20000CF04CCF46CFDF91CF911F9108958230BB
:101A3000910538F0880F991F880F991F0597019716
:101A4000F1F708958F929F92AF92BF92CF92DF925B
:101A5000EF92FF926B017C01E1D04B015C01C1145C
:101A6000D104E104F104E9F0D9D0DC01CB018819FB
:101A70009909AA09BB09883E9340A105B10578F3ED
:101A800021E0C21AD108E108F10888EE880E83E04F
:101A9000981EA11CB11CC114D104E104F10421F76A
:101AA000DECFFF90EF90DF90CF90BF90AF909F90F0
:101AB0008F90089540919D03262F30E0240F311D13
:101AC00021323105DCF4209136032430C9F4FC01C5
:101AD00080E090E0861758F430919D032191DC015D
:101AE000A358BC4FA30FB11D2C930196F3CF809147
:101AF0009D03680F60939D0380E0089581E0089541
:101B000082E00895089508950895E091EF0280918C
:101B1000EE02E81730F4F0E0E05FFC4F808190E0E7
:101B200008958FEF9FEF08959091EF028091EE025C
:101B3000981750F4E92FF0E0E05FFC4F208130E08F
:101B40009F5F9093EF0202C02FEF3FEFC90108950E
:101B50008091EE0290E02091EF02821B910908959E
:101B6000CF92DF92EF92FF920F931F93CF93DF9369
:101B70007C01CB018A0120910F03222389F0EB0124
:101B80006B01C40ED51ECC15DD0561F06991D7013E
:101B9000ED91FC910190F081E02DC7011995F3CFF3
:101BA000642F88DFC801DF91CF911F910F91FF90C3
:101BB000EF90DF90CF900895CF93DF931F92CDB732
:101BC000DEB7698320910F032223D1F02091EC022C
:101BD000203240F021E030E0FC013383228380E0BA
:101BE00090E014C08091ED02E82FF0E0E45AFC4F41
:101BF000998190838F5F8093ED028093EC0204C003
:101C000061E0CE01019656DF81E090E00F90DF9118
:101C1000CF910895089580E090E008953FB7F8943B
:101C20008091C5039091C603A091C703B091C803EA
:101C300026B5A89B05C02F3F19F00196A11DB11D27
:101C40003FBFBA2FA92F982F8827820F911DA11D62
:101C5000B11DBC01CD0142E0660F771F881F991F9F
:101C60004A95D1F708952FB7F8946091C103709108
:101C7000C2038091C3039091C4032FBF08951F92A4
:101C80000F920FB60F9211242F933F938F939F9330
:101C9000AF93BF938091C1039091C203A091C303FE
:101CA000B091C4033091C00323E0230F2D3720F4FB
:101CB0000196A11DB11D05C026E8230F0296A11DA6
:101CC000B11D2093C0038093C1039093C203A093DE
:101CD000C303B093C4038091C5039091C603A09140
:101CE000C703B091C8030196A11DB11D8093C50320
:101CF0009093C603A093C703B093C803BF91AF915D
:101D00009F918F913F912F910F900FBE0F901F9039
:101D100018951092360381E08093380310923703B0
:101D200061E084E153DD61E085E150DDE9EBF0E065
:101D300080818E7F808380818D7F808388E4809303
:101D4000B80085E48093BC000895CF93DF9391E0C1
:101D500090937C038823A1F0C091B800D091BA0081
:101D60008091BC008A7B8093BC0060E084E12EDD22
:101D700060E085E12BDDCDDFD093BA00C093B800E1
:101D8000DF91CF91089585ED8093BC008091310360
:101D900090913203A0913303B09134030796A11DB3
:101DA000B11D23E0B695A795979587952A95D1F70C
:101DB0002091BC0024FF1BC040913103509132039D
:101DC0006091330370913403452B462B472B81F3ED
:101DD0000097A105B10541F02AE22A95F1F700C06C
:101DE0000197A109B109E4CF80913003AECF1092E1
:101DF000360308951F920F920FB60F9211240BB65F
:101E00000F922F933F934F935F936F937F938F9393
:101E10009F93AF93BF93EF93FF938091B900887F17
:101E2000803609F49CC068F5883209F45BC090F4F0
:101E3000803109F454C038F4882309F4F6C088309E
:101E400009F44DC0F5C0883109F44CC0803209F462
:101E50005DC0EEC0803409F468C048F4803309F4F2
:101E600055C0883309F0E4C080933503D8C080356D
:101E700009F44FC0883509F45DC0883409F0D8C032
:101E8000D6C0883909F4C7C0A8F4883709F467C0F8
:101E900038F4883609F463C0803709F460C0C8C0DC
:101EA000883809F4B8C0803909F45FC0803809F077
:101EB000BFC05BC0803B09F486C038F4803A09F4A7
:101EC00066C0883A09F47FC0B3C0803C09F4A7C05B
:101ED000883C09F4A4C0883B09F48AC0A9C0809159
:101EE0005B0310C090915A0380915903981770F5C5
:101EF000E0915A0381E08E0F80935A03F0E0E75C93
:101F0000FC4F80818093BB0085EC86C080933503B5
:101F10008EC0E0915A0381E08E0F80935A03809126
:101F2000BB00F0E0E75CFC4F808390915A03809106
:101F300059036EC0E0915A0381E08E0F80935A03DB
:101F40008091BB00F0E0E75CFC4F80838091380318
:101F500081116DC081E08093370384EA61C083E022
:101F6000809336031092BF03CFCF8091BF0380329E
:101F700008F051C0E091BF0381E08E0F8093BF0352
:101F80008091BB00F0E0E156FC4F8083BDCF85EC33
:101F90008093BC00109236038091BF03803230F4EE
:101FA000E091BF03F0E0E156FC4F10826091BF0367
:101FB00070E0E091EA02F091EB028FE993E019956D
:101FC0001092BF0335C084E08093360310929E03C5
:101FD00010929D03E091E802F091E9021995809139
:101FE0009D03811105C081E080939D0310927D03C4
:101FF000E0919E0381E08E0F80939E03F0E0E35812
:10200000FC4F80818093BB0090919E0380919D0343
:10201000981708F479CF85E88093BC0009C085EC57
:102020008093BC001092360303C010923503ABDEE0
:10203000FF91EF91BF91AF919F918F917F916F91A0
:102040005F914F913F912F910F900BBE0F900FBE5C
:102050000F901F9018958F929F92AF92BF92CF9240
:10206000DF92EF92FF920F931F93CF93DF93109124
:10207000EC02113208F0BBC0062FD0910E03CEDD6A
:102080006B017C01C0913603CC2309F180913103AF
:1020900090913203A0913303B0913403892B8A2BA2
:1020A0008B2B81F3BBDD8090310390903203A090A5
:1020B0003303B0903403DC01CB018C199D09AE09C8
:1020C000BF0988169906AA06BB06E0F67DC082E025
:1020D00080933603009338038FEF8093350310927B
:1020E0005A0310935903ACE5B3E0E9E3F3E080E071
:1020F000181721F09D9191938F5FFACF10925B0397
:1021000090915B038D2F880F892B80935B038091C7
:102110003703813079F51092370380DD6B017C0144
:1021200080915B038093BB008091310390913203D7
:10213000A0913303B0913403892B8A2B8B2BA1F010
:102140006DDD009131031091320320913303309102
:102150003403DC01CB018C199D09AE09BF090817B6
:1021600019072A073B0780F18091BC0083FDD8CF77
:1021700085EC01C085EE8093BC0050DD6B017C01D5
:1021800080913603823029F580913103909132039A
:10219000A0913303B0913403892B8A2B8B2B81F3CD
:1021A0003DDD0091310310913203209133033091D2
:1021B0003403DC01CB018C199D09AE09BF09081756
:1021C00019072A073B07E0F680913003BEDDC5E022
:1021D00013C0809135038F3F79F0809135038032B1
:1021E00041F080913503803331F0C4E005C0C1E097
:1021F00003C0C2E001C0C3E01092ED021092EC02F5
:1022000010920F038C2FDF91CF911F910F91FF90B0
:10221000EF90DF90CF90BF90AF909F908F900895F8
:10222000FC0183858F3F11F061E0D0CA0895CF9300
:10223000DF93EC0188819981892B29F0EA81FB8168
:102240008081918177D88B858F3F21F060E0DF918D
:10225000CF91BCCADF91CF910895AF92BF92CF9238
:10226000DF92EF92FF920F931F93CF93DF93EC01D6
:1022700088819981892B31F06EBD0DB407FEFDCFA9
:10228000AEB493C088859985892B11F010E801C000
:1022900011E0BB24B394862F812309F0B12C062FC3
:1022A0002C813D814E815F8160E271EA87E090E0A0
:1022B0000E94C121F22EA02EE12CC22ED12CFF2093
:1022C00011F0C601B4DB8A85877FB1F58D858F3F1C
:1022D000B9F0902F912381E009F480E0B81681F0E5
:1022E000EF85F8898F89992331F09081892B80833C
:1022F000BB24B39405C09081809589238083B12C41
:10230000E989FA899081898D892B8083FF2011F0DA
:10231000C6018DDB8E858F3F39F0EB89FC8990817A
:10232000888D892309F0E12AE989FA899081898DCC
:102330008095892380832BC0E989FA899081898DD2
:10234000892B8083FF2011F0C60171DB8D858F3FC3
:1023500069F0EF85F8898F89902F912319F090818A
:10236000892B03C09081809589238083E989FA892C
:102370009081898D8095892380838E858F3F39F068
:10238000EB89FC899081888D892309F0E12A8E856B
:102390008F3F09F0AE2C88859985892B21F4110F88
:1023A00011118DCF02C01695FBCF8A2DDF91CF91F1
:1023B0001F910F91FF90EF90DF90CF90BF90AF9063
:1023C00008958F929F92AF92BF92CF92DF92EF9239
:1023D000FF920F931F93CF93DF937C015B016A0100
:1023E000490125DFE401080D191DC017D10721F0AF
:1023F0006991C70132DFF9CFE501CA0CDB1CCC15AE
:10240000DD0521F06991C70128DFF9CFC70108DF99
:1024100081E0DF91CF911F910F91FF90EF90DF90BE
:10242000CF90BF90AF909F908F900895FF920F93A1
:102430001F93CF93DF93EC018A01F22E89819A8159
:10244000DC01ED91FC910280F381E02D19950817D4
:10245000190731F46F2D89819A81FDDD91E0811199
:1024600090E0892FDF91CF911F910F91FF900895F8
:10247000CF93DF93EC018B8181111CC01092EF028E
:102480001092EE021092ED021092EC0242DC82E811
:102490009DE09093E9028093E80283E89DE09093A9
:1024A000EB028093EA0281E08B83CE01E1DF982F7B
:1024B000882389F0888191E090930F0380930E0325
:1024C0001092ED021092EC0261E089819A81C3DDE5
:1024D00091E0811190E0892FDF91CF9108950F93C2
:1024E0001F93CF93DF93EC01888199810E94770439
:1024F00021E030E00A8002C0220F331F0A94E2F785
:10250000215031098901330F220B330BAB01BC0180
:102510000B8004C076956795579547950A94D2F736
:10252000CB01BA016023712382239323DF91CF91E2
:102530001F910F910895FC01538D448D252F30E09C
:10254000842F90E0821B930B541710F0CF960895C0
:1025500001970895FC01918D828D981761F0828D0D
:10256000DF01A80FB11D5D968C91928D9F5F9F73C7
:10257000928F90E008958FEF9FEF0895FC01918D69
:10258000828D981731F0828DE80FF11D858D90E0D6
:1025900008958FEF9FEF0895FC01918D228D892F73
:1025A00090E0805C9F4F821B91098F73992708955B
:1025B00080E090E0892B19F0A0D8811125C080E03F
:1025C00090E0892B41F080E090E0892B21F00E947F
:1025D000000081111CC080E090E0892B41F080E078
:1025E00090E0892B21F00E940000811113C080E04F
:1025F00090E0892BA1F080E090E0892B81F00E948F
:10260000000081110AC008950E940000D8CF0E94E6
:102610000000E1CF0E940000EACF0C940000089572
:10262000CF93DF93CCEAD4E0682F8B81CFD88A8D0B
:102630009B8DDF91CF91FBC981E0F2CF0F931F9368
:102640000091B0041091B1042091B2043091B30410
:1026500040E052E16AE770E090E0041715072607B2
:10266000370740F476956795579547959F5F963065
:10267000A1F797E081E09827892F806A869591706D
:102680000E949A0980E01F910F91CACFCF93C82F63
:10269000D5DF8C2F80620E9493098093B404CF9180
:1026A000CBCFCF93DF93D82FC62FC8DF8D2F80627B
:1026B0000E9493098093B4048C2F0E949309DF91A8
:1026C000CF91BACFCF93C82FB9DF8C2F0E94930937
:1026D0008093B4048FEF0E949309C82FADDF8C2F35
:1026E000CF910895FF920F931F93CF93DF93182FED
:1026F000F62ED72FC42FA2DF812F80620E9493096C
:102700008093B4040F2D1D2FCC2339F0F801819153
:102710008F010E949309C150F7CFDF91CF911F9194
:102720000F91FF9089CF6091BB0461FD09C0626089
:102730006093BB0480E0B5DF8BE19EE40197F1F785
:1027400008957CDF80E50E9493098093B40483E7B9
:102750000E94930971CF682F8091AE049091AF04CD
:10276000891334C80895DFDF6091BB046160609312
:10277000BB0480E096DF60E787E093DF81E0EBDF7A
:102780008091BD04882331F04091BF0466EB74E072
:102790008AE0A8CF82E096DFE4E5F3E0E49121E06F
:1027A00030E001C0220FEA95EAF72095622F6823F6
:1027B00082E077DF1092BD040895CF92DF92EF920E
:1027C000FF920F931F93CF93DF937C018091C004FE
:1027D000811108C0D091B504C62FD61708F4CD2FAB
:1027E000DC1B07C0D1E06111D0E0C62F613208F0D8
:1027F000C0E224DF80EA0E9493098093B404870139
:10280000C11102C0CD2F07C0F80181918F010E9434
:102810009309C150F5CFCC2329F080E00E949309A1
:10282000C150F9CF09DF81E096DF1DDA6B017C0131
:102830008FEF2CDF8091B404807381F414DADC0113
:10284000CB018C199D09AE09BF0980369105A10500
:10285000B10570F381E08093C1040BC080E07BDFA1
:1028600060E787E01EDF8091B40484FF04C081EE3E
:102870000DDF80E001C081E0DF91CF911F910F91CA
:10288000FF90EF90DF90CF90089580E064DF80911B
:10289000C2049091C304CBD88091BE04882311F068
:1028A00081EEF4DE6091BB046E7F6093BB0480E038
:1028B000F8DE82E007DFE4E5F3E0E49161E070E058
:1028C00001C0660FEA95EAF7682B82E0EACE8F92A4
:1028D0009F92AF92BF92CF92DF92EF92FF920F93AF
:1028E0001F93CF93DF937C014B016A0159019FDC59
:1028F000E401C80CD91CCC15DD0521F06991C70194
:10290000ACDCF9CFE5010A0D1B1DC017D10729F07A
:102910006FEFC701A2DC8993F8CFC70181DC81E0AA
:10292000DF91CF911F910F91FF90EF90DF90CF90AB
:10293000BF90AF909F908F9008958F929F92AF928B
:10294000BF92CF92DF92EF92FF920F931F93CF939C
:10295000DF93EC016A017B01888199810E947704F1
:1029600001E010E00A8002C0000F111F0A94E2F794
:1029700001501109012E000C220B330B4B81480131
:102980005901042E04C0880C991CAA1CBB1C0A9473
:10299000D2F780949094A094B094DC01CB0188216C
:1029A0009921AA21BB21E881F9810C211D212E2129
:1029B0003F2104C0000F111F221F331F4A95D2F779
:1029C000B901A801482B592B6A2B7B2B2085CF01FD
:1029D000DF91CF911F910F91FF90EF90DF90CF90FB
:1029E000BF90AF909F908F900C94A904FC01848DB0
:1029F000DF01A80FB11DA35ABF4F2C91848D90E029
:102A000001968F739927848FA689B7892C93A08903
:102A1000B1898C91837080648C93938D848D98138D
:102A200006C00288F389E02D80818F7D8083089520
:102A3000EF92FF920F931F93CF93DF93EC0181E00E
:102A4000888F9B8D8C8D981305C0E889F9898081CA
:102A500085FD25C0F62E0B8D10E00F5F1F4F0F7305
:102A60001127E02E8C8DE8120BC00FB607FCFACFB1
:102A7000E889F989808185FFF5CFCE01B7DFF2CFF4
:102A80008B8DFE01E80FF11DE35AFF4FF0829FB7D7
:102A9000F8940B8FEA89FB89808180620AC09FB716
:102AA000F894EE89FF896083E889F98980818370D1
:102AB000806480839FBF81E090E0DF91CF911F9180
:102AC0000F91FF90EF900895CF93DF93EC01888DE5
:102AD0008823C1F0EA89FB89808185FD05C0A8892A
:102AE000B9898C9186FD0EC00FB607FCF5CF8081A9
:102AF00085FFF2CFA889B9898C9185FFEDCFCE01F2
:102B000075DFE8CFDF91CF9108952F923F924F92DA
:102B10005F926F927F928F929F92AF92BF92CF926D
:102B2000DF92EF92FF920F931F93CF93DF93CDB776
:102B3000DEB760970FB6F894DEBF0FBECDBF7C0145
:102B40001B016A01FC0117821682838181FF30C359
:102B50009E012F5F3F4F3901F7019381F10193FDF2
:102B6000859193FF81911F01882309F41DC385324C
:102B700039F493FD859193FF81911F01853239F4DA
:102B8000B70190E00E94381F56016501E5CF10E0C3
:102B9000512C912CFFE1F915D8F08B3279F038F4F3
:102BA000803279F08332A1F4F92DF0612EC08D329C
:102BB00061F0803369F4292D21602DC0392D3260F8
:102BC000932E892D8460982E2AC0E92DE86015C0C7
:102BD00097FC2DC020ED280F2A3088F496FE06C001
:102BE0003AE0139F200D1124122F19C08AE0589E3D
:102BF000200D1124522EE92DE0629E2E10C08E323F
:102C000031F496FCD1C2F92DF0649F2E08C08C36A9
:102C100021F4292D2068922E02C0883641F4F1015A
:102C200093FD859193FF81911F018111B3CF9BEBA0
:102C3000980F933020F4992D9061805E07C09BE936
:102C4000980F933008F05EC1992D9F7E96FF16E095
:102C50009F73992E853619F49064992E08C0863694
:102C600021F4392F3068932E02C01111115097FEB4
:102C700007C01C3350F444244394410E27E00BC09A
:102C8000183038F027E017E005C027E09CE3492E14
:102C900002C0212F412C560184E0A80EB11CF60180
:102CA0006081718182819381042DA301F3D76C012E
:102CB000F981FC87F0FF02C0F3FF06C091FC06C05B
:102CC00092FE06C000E205C00DE203C00BE201C0A7
:102CD00000E08C858C7019F0011148C285C297FE06
:102CE00010C04C0CFC85F4FF04C08A81813309F4C8
:102CF0004A94141474F528E0241578F588E0482ED9
:102D00002CC096FC2AC0812F90E08C159D059CF06C
:102D10003CEFC3163FEFD30674F0892D8068982EE0
:102D20000AC0E2E0F0E0EC0FFD1FE10FF11D808131
:102D3000803319F411501111F4CF97FE0EC04424C2
:102D40004394410E812F90E0C816D9062CF41C192B
:102D500004C04424439401C010E097FE06C01C1434
:102D60001D0434F4C601019605C085E090E002C060
:102D700081E090E001110196112331F0212F30E024
:102D80002F5F3F4F820F931F252D30E0821793074F
:102D900014F4581A01C0512C892D897049F455201A
:102DA00039F0B70180E290E00E94381F5A94F7CFC3
:102DB000002329F0B701802F90E00E94381F93FC78
:102DC00009C0552039F0B70180E390E00E94381F18
:102DD0005A94F7CF97FE4CC04601D7FE02C0812C13
:102DE000912CC60188199909F301E80FF91FFE8794
:102DF000ED87960124193109388B2F87012F10E0B8
:102E00001195019511093FEF8316930629F4B70137
:102E10008EE290E00E94381FC814D9044CF08F85D0
:102E200098898815990524F4ED85FE85818101C076
:102E300080E3F1E08F1A91082D853E852F5F3F4F8B
:102E40003E872D87801691062CF0B70190E00E94F6
:102E5000381FD9CFC814D90441F49A81963320F48D
:102E6000953319F43C8534FF81E3B70190E048C005
:102E70008A81813319F09C859F7E9C87B70190E001
:102E8000F7D7111105C094FC16C085E690E015C077
:102E9000B7018EE290E0ECD71E5F82E001E0080F00
:102EA000F301E80FF11D8081B70190E0E1D7802F99
:102EB0000113F4CFE8CF85E490E0B701D9D7D7FC70
:102EC00006C0C114D10441F4EC85E4FF05C0D194DF
:102ED000C194D1088DE201C08BE2B70190E0C8D760
:102EE00080E32AE0C216D1042CF08F5FFAE0CF1AFB
:102EF000D108F7CFB70190E0BBD7B701C601C096A4
:102F0000B7D749C1833631F0833779F0833509F07B
:102F100052C01FC0560132E0A30EB11CF6018081E1
:102F2000898301E010E0630111C05601F2E0AF0EA9
:102F3000B11CF601C080D18096FE03C0612F70E005
:102F400002C06FEF7FEFC60188D78C01F92DFF77A4
:102F500013C0560122E0A20EB11CF601C080D18040
:102F600096FE03C0612F70E002C06FEF7FEFC601D5
:102F700069D78C01F92DF0689F2EF3FD18C0852DBF
:102F800090E00817190798F4B70180E290E070D735
:102F90005A94F5CFF60197FC859197FE81916F01C8
:102FA000B70190E065D751105A94015011090115ED
:102FB000110581F7F0C0843611F0893659F55601B4
:102FC00097FE09C024E0A20EB11CF6016081718158
:102FD000828193810AC0F2E0AF0EB11CF6016081DC
:102FE0007181072E000C880B990BF92DFF769F2E0F
:102FF00097FF09C090958095709561957F4F8F4F91
:103000009F4FF0689F2E2AE030E0A3016DD7C82EB5
:10301000C6183EC0092D853721F40F7E2AE030E026
:103020001DC0097F8F3691F018F4883559F0BCC067
:10303000803719F0883711F0B7C0006104FF09C06C
:10304000046007C094FE08C0066006C028E030E0B7
:1030500005C020E130E002C020E132E0560107FF68
:1030600009C084E0A80EB11CF601608171818281E3
:10307000938108C0F2E0AF0EB11CF601608171814E
:1030800080E090E0A30130D7C82EC6180F77902EAD
:1030900096FE0BC0092D0E7FC11650F494FE0AC097
:1030A00092FC08C0092D0E7E05C0DC2C092D03C042
:1030B000DC2C01C0D12E04FF0DC0FE01EC0DF11D72
:1030C0008081803311F4097E09C002FF06C0D394C9
:1030D000D39404C0802F867809F0D39403FD10C0E8
:1030E00000FF06C01C2DD51478F4150D1D190CC059
:1030F000D51450F4B70180E290E0BAD6D394F8CF5B
:10310000D51410F45D1801C0512C04FF0FC0B70195
:1031100080E390E0ADD602FF16C001FD03C088E752
:1031200090E002C088E590E0B7010CC0802F86785F
:1031300051F001FF02C08BE201C080E207FD8DE289
:10314000B70190E095D6C11630F4B70180E390E066
:103150008FD61150F8CFCA94F301EC0DF11D808188
:10316000B70190E085D6C110F6CF15C0F4E0F51593
:1031700050F584E0581A93FE1EC0011125C02C851D
:1031800023FF27C00CE211E0392D3071932EF80196
:103190008491811121C0552009F4F7CCB70180E258
:1031A00090E066D65A94F7CFF7018681978123C0C5
:1031B0008FEF9FEF20C0B70180E290E059D65A947C
:1031C0005110F9CFDACF512CB701802F90E050D6B3
:1031D000D6CF00E311E0D8CF91108052B70190E034
:1031E00047D60F5F1F4FD3CF23E0251510F483E0A0
:1031F000C1CF512CC4CF60960FB6F894DEBF0FBE7E
:10320000CDBFDF91CF911F910F91FF90EF90DF9095
:10321000CF90BF90AF909F908F907F906F905F9076
:103220004F903F902F90089585E692E0909373041D
:10323000809372048091920490919304009739F0E6
:10324000DC01ED91FC910280F381E02D19958091D4
:10325000940490919504009739F0DC01ED91FC9174
:103260000280F381E02D1995809196049091970446
:10327000009739F0DC01ED91FC910280F381E02DA3
:1032800019958091900490919104009711F00C94FD
:1032900083220895CF93DF93CDB7DEB7C15AD1090A
:1032A0000FB6F894DEBF0FBECDBF789484B58260B0
:1032B00084BD84B5816084BD85B5826085BD85B5DA
:1032C000816085BD80916E00816080936E00109258
:1032D00081008091810082608093810080918100D3
:1032E0008160809381008091800081608093800064
:1032F0008091B10084608093B1008091B0008160C2
:103300008093B000809191008260809391008091C1
:103310009100816080939100809190008160809302
:1033200090008091A10082608093A1008091A10013
:1033300081608093A1008091A00081608093A000B3
:10334000809121018260809321018091210181601F
:1033500080932101809120018160809320018091E0
:103360007A00846080937A0080917A0082608093F2
:103370007A0080917A00816080937A0080917A004F
:10338000806880937A001092C10061E085E00E941D
:10339000140C61E082E00E94140C61E083E00E9462
:1033A000140C61E084E00E94140C61E088E00E944B
:1033B000140C61E087E00E94140C61E086E00E943A
:1033C000140C60E08EE20E94140C40E050E060E0DB
:1033D00070E081E090E00E94DE090E94ED0980919A
:1033E000900490919104009711F00E94832286E04E
:1033F00090E0F1D7FC0188E6808386E694E0928332
:103400008183138280E290E095838483F09391041A
:10341000E093900405E042E8C42E4DE0D42E53E83A
:10342000A52E5DE0B52E99249394E0909004F09041
:1034300091041092EF021092EE021092ED0210929F
:10344000EC020E94890ED092E902C092E802B0928A
:10345000EB02A092EA0211E0D70113969C92C701F9
:1034600007D8811109C06AE070E080E090E00E9416
:10347000220D0150D1F620C08091900490919104CA
:10348000188A198A1A8A1B8A9A8389831C821B824A
:103490001A8785E790E098878F831B861987AE018E
:1034A0004F5F5F4F7A01CA010E9477046836710549
:1034B0008105910509F4DBC263E170E087E992E0E0
:1034C0000E949D0968E170E08BEA92E00E949D09EC
:1034D000FE013196C457DF4FF983E883CC58D040C2
:1034E0009E01275B3F4FC257DF4F39832883CE5859
:1034F000D040412C512C32014394AE014B5D5F4FC3
:10350000C057DF4F59834883C059D0401E015DE644
:10351000250E311C0E94330E4B015C0170930D038C
:1035200060930C038091C104882379F060E070E01F
:1035300080E090E00E94B1090E94ED0960E270E035
:1035400084EC92E00E949D0910C087E1BBD880FF07
:10355000FFC228C371D860E487E0A3D881E08093DC
:10356000030390920203809201038091FF029091E5
:103570000003881A990AB5E68B1691040CF49DC1D4
:1035800084D90E94330E4B015C0182E794E00E94D3
:10359000EA0614E2C457DF4FE881F981CC58D040E5
:1035A000212F11922A95E9F784E290E0A0E0B0E0A3
:1035B00089839A83AB83BC8380919C0490919D0402
:1035C000A0E0B0E08D839E83AF83B8872DE030E02C
:1035D00040E050E029873A874B875C87898A9A8A3E
:1035E000AB8ABC8A8091740490917504A091760492
:1035F000B0917704CE56DF4F88839983AA83BB832B
:10360000C259D0408D8B9E8BAF8BB88FC257DF4F86
:10361000A881B981CE58D040E12F1D92EA95E9F7F3
:103620002D964CAE5DAE6EAE7FAE2D978091980418
:1036300090919904A0E0B0E061968CAF9DAFAEAFE1
:10364000BFAF619765964CAE5DAE6EAE7FAE6597CF
:103650006D968CAE9DAEAEAEBFAE6D972AE038EEE5
:103660004CE151E4609178047091790480917A047E
:1036700090917B0423D6CA56DF4F688379838A836F
:103680009B83C659D040A1966CAF7DAF8EAF9FAFE4
:10369000A1972AE038EE4CE151E460917C047091EE
:1036A0007D0480917E0490917F0408D6C656DF4F3A
:1036B000688379838A839B83CA59D040A5966CAF6F
:1036C0007DAF8EAF9FAFA5972AE038EE4CE151E475
:1036D00060918004709181048091820490918304B0
:1036E000EDD56B017C01A9966CAF7DAF8EAF9FAF1E
:1036F000A997C057DF4FA881B981C059D0401D920A
:103700001A95E9F74DA25EA26FA278A680919A045D
:1037100090919B04A0E0B0E089A79AA7ABA7BCA7B3
:1037200024E030E040E050E02DA73EA74FA758AB83
:103730008DAA9EAAAFAAB8AE25E33AEF4EE85CE3A5
:10374000609184047091850480918604909187042F
:10375000B5D5C256DF4F688379838A839B83CE5960
:10376000D04069AF7AAF8BAF9CAF25E33AEF4EE81C
:103770005CE3609188047091890480918A0490913F
:103780008B049CD54B015C0121966CAF7DAF8EAF55
:103790009FAF219725E33AEF4EE85CE360918C04FC
:1037A00070918D0480918E0490918F0487D5259619
:1037B0006CAF7DAF8EAF9FAF25972FE1D1011D92EA
:1037C0002A95E9F7C256DF4F288139814A815B810A
:1037D000CE59D040D10111962D933D934D935C93DA
:1037E0001497F10185829682A782B08619966D930F
:1037F0007D938D939C931C97CA56DF4F2881398106
:103800004A815B81C659D0401D962D933D934D93BF
:103810005C935097C656DF4F288139814A815B817E
:10382000CA59D04051962D933D934D935C93549734
:10383000C58AD68AE78AF08ECE56DF4F2881398135
:103840004A815B81C259D04059962D933D934D9347
:103850005C935C97809103035D968C93ECE3F3E0BB
:103860008491E6EFF2E00491E0EBF2E01491112391
:1038700079F081110E94250BE12FF0E0EE0FFF1F80
:10388000E859FD4FA591B491EC910E2381E009F424
:1038900080E0D1015E968C936FE1C1010E94DD133F
:1038A000182F0E94B3131093FE0280910C03909185
:1038B0000D03909300038093FF029091FE0280918C
:1038C0000303992349F040E050E061E070E081118A
:1038D0000CC081E090E00BC041E050E0882319F07B
:1038E00060E070E002C061E070E080E090E00E9483
:1038F000DE0920910A0330910B0380910803909117
:103900000903821793072CF43093FD022093FC02E5
:1039100007C09195819591099093FD028093FC02D7
:103920000091040310910503B801012E000C880BCF
:10393000990B38D420E030E040E85BE3BFD420E0CE
:1039400030E040E85FE317FF1EC02DD39B01AC01C0
:103950002AD320E030E040E85FE324D36093F8020C
:103960007093F9028093FA029093FB0220E030E01A
:1039700040E85FE32093F4023093F5024093F602AF
:103980005093F7021AC02093F8023093F902409343
:10399000FA025093FB0220E030E040E050EC8ED47D
:1039A00020E030E040E85FE3FED26093F4027093E1
:1039B000F5028093F6029093F70280910303882327
:1039C00009F44CC06091FC027091FD02072E000CBE
:1039D000880B990BE7D36B017C012091F8023091A1
:1039E000F9024091FA025091FB0268D4A8D32091C9
:1039F000F4023091F5024091F6025091F702809165
:103A0000F2029091F3026817790714F4019704C049
:103A1000861797072CF401969093F3028093F20295
:103A2000C701B6014BD48BD38091F0029091F10283
:103A30006817790714F4019704C0861797072CF4C8
:103A400001969093F1028093F0026091F0027091E0
:103A5000F1028091F2029091F30204C060E070E004
:103A600080E090E00E94B1090E94D81253CD40E05E
:103A700050E0BA0182E794E00E946405882309F4CB
:103A80001BCD61E170E085E892E00E949D09809184
:103A9000900490919104188A198A1A8A1B8A9A8331
:103AA00089831C821B821A878CE190E098878F8320
:103AB0001B861987FEA2EDA232E0D32EDFA203E01F
:103AC00008A742E050E060E070E0CE0185960E94D9
:103AD0009D148091900490919104188A198A1A8AF1
:103AE0001B8A9A8389831C821B821A878BE190E050
:103AF00098878F831B861987FEA2EDA2DFA208A7F5
:103B000041E050E060E070E0CE0185960E949D1497
:103B10008091900490919104188A198A1A8A1B8ABC
:103B20009A8389831C821B821A878AE190E0988796
:103B30008F831B861987FEA2EDA20FA318A644E06F
:103B400050E060E070E0CE0185960E949D14BACCF2
:103B50008091C004811108C01091B504012F193063
:103B600008F008E0101B02C010E008E00E941E13DD
:103B700081E60E9493098093B40494E0E92E93E0D7
:103B8000F92E015038F08FEF0E949309D7018D93E1
:103B90007D01F7CF112309F4DDCC8FEF0E9493094B
:103BA0001150F8CF8091010390910203D401A81B1A
:103BB000B90BA436B1050CF4D8CC10920303D5CCC4
:103BC000E9ECF3E01382128288EE93E0A0E0B0E02B
:103BD00084839583A683B78321E432E031832083F5
:103BE00025EC30E03587248724EC30E037872687C2
:103BF00020EC30E0318B208B21EC30E0338B228BBA
:103C000022EC30E0358B248B26EC30E0378B268B92
:103C1000118E128E138E148EE6E6F4E01382128259
:103C200084839583A683B78383E592E09183808321
:103C3000ECEAF4E08DE082838CE0838380E896E90F
:103C4000A8E9B0E084839583A683B78380E2818767
:103C5000108A118A85E0838B81E0848B85E090E077
:103C6000A0E0B0E0828F938FA48FB58F8AEC94E0B0
:103C7000918380831286E2E7F4E085E692E0918307
:103C80008083178E168E11A210A213A212A215A263
:103C900014A20895283008F027E03327DA01990F9D
:103CA000311D87FD916000966105710539F4326020
:103CB0002E5F3D9330E32A95E1F708959F3F30F062
:103CC00080387105610509F03C5F3C5F3D939130A0
:103CD00008F08068911DDF93CF931F930F93FF929D
:103CE000EF92192F987F9695E92F96959695E90F63
:103CF000FF27E257FE4F99273327EE24FF24A70121
:103D0000E70105900894079428F4360FE71EF81E83
:103D1000491F511D660F771F881F991F0694A1F731
:103D20000590079428F4E70EF81E491F561FC11D81
:103D3000770F881F991F661F0694A1F705900794B7
:103D400028F4F80E491F561FC71FD11D880F991F51
:103D5000661F771F0694A1F70590079420F4490F7A
:103D6000561FC71FD81F990F661F771F881F0694FD
:103D7000A9F784911095177041F0D695C79557957E
:103D80004795F794E7941A95C1F7E4E3F1E0689456
:103D90001590159135916591959105907FE27395F8
:103DA000E118F10A430B560BC90BD009C0F7E10C1F
:103DB000F11E431F561FC91FD01D7EF4703311F42E
:103DC0008A95E6CFE894015030F0080F0AF40027F6
:103DD000021708F4202F2395022F7A3328F079E375
:103DE0007D932A95E9F710C07D932A9589F606946C
:103DF00097956795379517951794E118F10A430B36
:103E0000560BC90BD00998F023957E9173957A33A0
:103E100008F070E37C932013B8F77E9170617D9376
:103E200030F0839571E37D9370E32A95E1F71124D7
:103E3000EF90FF900F911F91CF91DF91992787FD10
:103E400090950895FC010590615070400110D8F7DD
:103E5000809590958E0F9F1F0895FC0161507040D2
:103E600001900110D8F7809590958E0F9F1F0895AF
:103E70000F931F93CF93DF93FB01238121FD03C099
:103E80008FEF9FEF2CC022FF16C0468157812481FF
:103E900035814217530744F4A081B1819D012F5F02
:103EA0003F4F318320838C93268137812F5F3F4F93
:103EB0003783268314C08B01EC01FB010084F1855C
:103EC000E02D1995892BE1F6D80116968D919C91DC
:103ED0001797019617969C938E931697CE01DF91B4
:103EE000CF911F910F910895FA01AA27283051F11F
:103EF000203181F1E8946F936E7F6E5F7F4F8F4F1B
:103F00009F4FAF4FB1E03ED0B4E03CD0670F781F79
:103F1000891F9A1FA11D680F791F8A1F911DA11D5E
:103F20006A0F711D811D911DA11D20D009F4689497
:103F30003F912AE0269F11243019305D3193DEF63F
:103F4000CF010895462F4770405D4193B3E00FD0F5
:103F5000C9F7F6CF462F4F70405D4A3318F0495DE0
:103F600031FD4052419302D0A9F7EACFB4E0A695C3
:103F70009795879577956795BA95C9F700976105E5
:103F8000710508959B01AC010A2E0694579547953B
:103F900037952795BA95C9F7620F731F841F951F30
:103FA000A01D08955058BB27AA270ED04DC13ED161
:103FB00030F043D120F031F49F3F11F41EF433C1AF
:103FC0000EF4E095E7FB29C1E92F4FD180F3BA1732
:103FD000620773078407950718F071F49EF567C1AF
:103FE0000EF4E0950B2EBA2FA02D0B01B901900114
:103FF0000C01CA01A0011124FF27591B99F0593F58
:1040000050F4503E68F11A16F040A22F232F342F9F
:104010004427585FF3CF469537952795A795F040ED
:104020005395C9F77EF41F16BA0B620B730B840B02
:10403000BAF09150A1F0FF0FBB1F661F771F881FBA
:10404000C2F70EC0BA0F621F731F841F48F4879512
:1040500077956795B795F7959E3F08F0B3CF939501
:10406000880F08F09927EE0F9795879508950CD043
:10407000EBC0E3D040F0DAD030F021F45F3F19F02C
:10408000CCC0511115C1CFC0F0D098F39923C9F31A
:104090005523B1F3951B550BBB27AA27621773074E
:1040A000840738F09F5F5F4F220F331F441FAA1F02
:1040B000A9F333D00E2E3AF0E0E830D091505040C2
:1040C000E695001CCAF729D0FE2F27D0660F771F70
:1040D000881FBB1F261737074807AB07B0E809F052
:1040E000BB0B802DBF01FF2793585F4F2AF09E3FE7
:1040F000510568F092C0DCC05F3FECF3983EDCF302
:10410000869577956795B795F7959F5FC9F7880F5F
:10411000911D9695879597F90895E1E0660F771FB1
:10412000881FBB1F621773078407BA0720F0621B42
:10413000730B840BBA0BEE1F88F7E095089504D03B
:104140006894B111B5C0089598D088F09F5790F049
:10415000B92F9927B751A0F0D1F0660F771F881FAC
:10416000991F1AF0BA95C9F712C0B13081F09FD0EB
:10417000B1E008959CC0672F782F8827B85F39F089
:10418000B93FCCF3869577956795B395D9F73EF40B
:1041900090958095709561957F4F8F4F9F4F0895B3
:1041A000E89409C097FB3EF49095809570956195D1
:1041B0007F4F8F4F9F4F9923A9F0F92F96E9BB2787
:1041C0009395F695879577956795B795F111F8CF03
:1041D000FAF4BB0F11F460FF1BC06F5F7F4F8F4F6E
:1041E0009F4F16C0882311F096E911C0772321F064
:1041F0009EE8872F762F05C0662371F096E8862FFC
:1042000070E060E02AF09A95660F771F881FDAF752
:10421000880F9695879597F9089597F99F6780E895
:1042200070E060E008959FEF80EC089500240A9408
:104230001616170618060906089500240A94121681
:104240001306140605060895092E0394000C11F4B4
:10425000882352F0BB0F40F4BF2B11F460FF04C061
:104260006F5F7F4F8F4F9F4F089557FD9058440FBA
:10427000551F59F05F3F71F04795880F97FB991FC5
:1042800061F09F3F79F08795089512161306140682
:10429000551FF2CF4695F1DF08C01616170618060F
:1042A000991FF1CF86957105610508940895E894EA
:1042B000BB2766277727CB0197F908950BD0C4CF8A
:1042C000B5DF28F0BADF18F0952309F0A6CFABCF01
:1042D0001124EECFCADFA0F3959FD1F3950F50E0E4
:1042E000551F629FF001729FBB27F00DB11D639FA8
:1042F000AA27F00DB11DAA1F649F6627B00DA11D4E
:10430000661F829F2227B00DA11D621F739FB00DF3
:10431000A11D621F839FA00D611D221F749F332763
:10432000A00D611D231F849F600D211D822F762FFC
:104330006A2F11249F5750408AF0E1F088234AF0F9
:10434000EE0FFF1FBB1F661F771F881F9150504045
:10435000A9F79E3F510570F060CFAACF5F3FECF305
:10436000983EDCF3869577956795B795F795E79531
:104370009F5FC1F7FE2B880F911D9695879597F942
:104380000895A1E21A2EAA1BBB1BFD010DC0AA1F96
:10439000BB1FEE1FFF1FA217B307E407F50720F0AE
:1043A000A21BB30BE40BF50B661F771F881F991F29
:1043B0001A9469F760957095809590959B01AC0172
:1043C000BD01CF010895EE0FFF1F881F8BBF07901F
:1043D000F691E02D19940F931F93CF93DF938230C2
:1043E000910510F482E090E0E091CD04F091CE04CC
:1043F00020E030E0A0E0B0E0309719F14081518139
:104400000281138148175907C8F08417950769F48A
:10441000109731F012960C93129713961C9327C0A5
:104420000093CD041093CE0422C02115310519F05C
:104430004217530718F49A01BD01EF01DF01F8019B
:10444000DBCF21153105F9F0281B390B243031055C
:1044500080F48A819B816115710521F0FB019383B2
:10446000828304C09093CE048093CD04FE013296E3
:1044700044C0FE01E20FF31F819391932250310952
:10448000398328833AC02091CB043091CC04232B6C
:1044900041F420910202309103023093CC04209326
:1044A000CB0420910002309101022115310541F425
:1044B0002DB73EB74091040250910502241B350BE5
:1044C000E091CB04F091CC04E217F307A0F42E1B8B
:1044D0003F0B2817390778F0AC014E5F5F4F241768
:1044E000350748F04E0F5F1F5093CC044093CB0428
:1044F0008193919302C0E0E0F0E0CF01DF91CF9192
:104500001F910F910895CF93DF93009709F481C015
:10451000FC01329713821282A091CD04B091CE0497
:10452000109781F420813181820F931F2091CB0459
:104530003091CC042817390751F5F093CC04E0935F
:10454000CB0467C0ED0120E030E0CE17DF0740F478
:104550004A815B819E0141155105F1F0EA01F5CFD9
:10456000D383C28340815181840F951FC817D90717
:1045700059F488819981840F951F029691838083D5
:104580008A819B81938382832115310529F4F093DD
:10459000CE04E093CD043DC0E901FB83EA83499159
:1045A0005991C40FD51FEC17FD0761F480819181EB
:1045B000840F951F0296E9019983888382819381F4
:1045C0009B838A83E0E0F0E012968D919C91139793
:1045D000009719F0FD01DC01F7CF8D919C911197A7
:1045E0009D012E5F3F4F820F931F2091CB0430918E
:1045F000CC042817390769F4309729F41092CE04B7
:104600001092CD0402C013821282B093CC04A09306
:10461000CB04DF91CF91089581E090E0F8940FC032
:10462000FB01DC014150504048F001900D92002008
:10463000C9F701C01D9241505040E0F7089511E0C4
:10464000CEEAD1E000E005C0802FFE01BCDE21965D
:10465000011DCF3AD10780E00807B1F7F894FFCFEA
:104660000000CF042000312D722D7300632D7230B5
:10467000310000000000E3018C03E40170088E03A8
:1046800000000000E2018A03E401B208DD0300003B
:104690000000E1018803E401210928040000000072
:1046A000001815FB0A9B126415CC12AA12BE120048
:1046B000000000DC0DB00D0B0E840DA80D940D85CF
:1046C0000D0000000064054D5055363035305F5404
:1046D000004D5055363035305F41004D5055363025
:1046E00035305F47004779726F20496E69746961A0
:1046F0006C697A65642E004779726F206E6F742042
:10470000636F6E6E65637465642E00496E697469CB
:10471000616C697A6174696F6E20636F6D706C652E
:1047200074652E00526164696F207265636F6E66F6
:104730006967757265642061667465722066616977
:064740006C7572650000BB
:020000023000CC
:10E000000D9489F10D94B2F10D94B2F10D94B2F129
:10E010000D94B2F10D94B2F10D94B2F10D94B2F1F0
:10E020000D94B2F10D94B2F10D94B2F10D94B2F1E0
:10E030000D94B2F10D94B2F10D94B2F10D94B2F1D0
:10E040000D94B2F10D94B2F10D94B2F10D94B2F1C0
:10E050000D94B2F10D94B2F10D94B2F10D94B2F1B0
:10E060000D94B2F10D94B2F10D94B2F10D94B2F1A0
:10E070000D94B2F10D94B2F10D94B2F10D94B2F190
:10E080000D94B2F10D94B2F10D94B2F10D94B2F180
:10E090000D94B2F10D94B2F10D94B2F10D94B2F170
:10E0A0000D94B2F10D94B2F10D94B2F10D94B2F160
:10E0B0000D94B2F10D94B2F10D94B2F10D94B2F150
:10E0C0000D94B2F10D94B2F10D94B2F10D94B2F140
:10E0D0000D94B2F10D94B2F10D94B2F10D94B2F130
:10E0E0000D94B2F12A00593D506F727420626C6930
:10E0F0006E6B00563D73686F7720696E746572723F
:10E1000075707420566563746F727300523D447568
:10E110006D702052414D00513D51756974004C3D68
:10E120004C69737420492F4F20506F7274730048EC
:10E130003D48656C7000463D44756D7020464C410D
:10E14000534800453D44756D7020454550524F4D34
:10E1500000423D426C696E6B204C454400403D4599
:10E160004550524F4D2074657374003F3D435055E8
:10E1700020737461747300303D5A65726F2061645E
:10E18000647200504F5254004545206572722063FE
:10E190006E743D0052656164696E672045450057A5
:10E1A00072697474696E672045450020004D75736F
:10E1B000742062652061206C657474657200506F14
:10E1C0007274206E6F7420737570706F72746564F2
:10E1D000005768617420706F72743A006A6D702025
:10E1E00000726A6D702020006E6F20766563746F18
:10E1F00072005623202020414444522020206F707A
:10E2000020636F64652020202020696E737472750E
:10E210006374696F6E2061646472202020496E749B
:10E2200065727275707400352E342E3000322E30C7
:10E230002E30004E6F762020362032303232004CA5
:10E240006F636B20667573652020203D2000457844
:10E25000742066757365202020203D200048696782
:10E260006820667573652020203D20004C6F772064
:10E2700066757365202020203D20004350552049BD
:10E28000442020202020203D200047434320566585
:10E290007273696F6E203D2000415652204C6962B6
:10E2A00043205665723D20005F5F4156525F4152E8
:10E2B00043485F5F3D2000435055205479706520EE
:10E2C0002020203D2000436F6D70696C6564206FD5
:10E2D0006E203D20004875683F00426F6F746C6F80
:10E2E000616465723E0041726475696E6F20657885
:10E2F000706C6F7265722073746B353030563220DB
:10E300006279204D4C530041546D6567613235365A
:10E31000300011241FBECFEFD1E2DEBFCDBF01E040
:10E320000CBF12E0A0E0B2E0E4E2F7EF03E00BBFC5
:10E3300002C007900D92A430B107D9F722E0A4E003
:10E34000B2E001C01D92A231B207E1F70F94EFF2E3
:10E350000D9490FB01E20EBF0FEF0DBF11241FBE05
:10E360000D94EFF20D9400F08093C6008091C000F0
:10E3700086FFFCCF8091C00080648093C000089528
:10E3800020E030E02817390749F0EFECF7E031974B
:10E39000F1F700C000002F5F3F4FF4CF0895CF93F7
:10E3A000DF93EC01C60FD11DCE01A0E0B0E0ABBF02
:10E3B000FC018791882321F021960F94B4F1F4CFCA
:10E3C000DF91CF9108958DE00F94B4F18AE00D9420
:10E3D000B4F10F94CFF10D94E3F1CF93DF93EC01FF
:10E3E0008991882319F00F94B4F1FACFDF91CF917E
:10E3F0000895CF93C82F982F92959F7080E3890F2F
:10E400008A3310F087E3890F0F94B4F1CF7080E363
:10E410008C0F8A3310F087E38C0FCF910D94B4F1F9
:10E420000F931F93CF93DF93EC018B0185369105FA
:10E430001CF4633071054CF0CE0164E670E00F947B
:10E4400029FB80E3860F0F94B4F1CB30D1051CF487
:10E45000023011056CF0CE0164E670E00F9429FBE8
:10E460006AE070E00F9429FB80E3860F0F94B4F10B
:10E47000CE016AE070E00F9429FB805DDF91CF91BF
:10E480001F910F910D94B4F18091C00087FFFCCFD4
:10E490008091C6000895CF93C82F60E083E891EE85
:10E4A0000F94CFF18C2F0F94B4F1CF910D94E3F131
:10E4B0002F923F924F925F926F927F928F929F9294
:10E4C000AF92BF92CF92DF92EF92FF920F931F9382
:10E4D000CF93DF93CDB7DEB763970FB6F894DEBF67
:10E4E0000FBECDBF082F6A017B0180E1382E10E0FE
:10E4F0004E0181E1880E911C91E0C916D104E90614
:10E50000F10418F08E2D0F94F9F18D2D0F94F9F17F
:10E510008C2D0F94F9F180E20F94B4F18DE20F94F9
:10E52000B4F180E20F94B4F11982FE0131965F01DB
:10E53000260137012E2EBB8A013051F028F002301F
:10E5400059F4F201108108C06BBEF201179104C0AA
:10E55000C2010F947AFB182F812F0F94F9F180E2FA
:10E560000F94B4F180EE810F8F3518F4F50110830C
:10E5700003C08EE2F50180839FEF491A590A690AA8
:10E58000790AEFEFAE1ABE0AA814B904A9F6F0E1B1
:10E59000CF0ED11CE11CF11C198A822D9B890F948E
:10E5A000EDF10F94E3F13A943110A6CF63960FB6D4
:10E5B000F894DEBF0FBECDBFDF91CF911F910F91B9
:10E5C000FF90EF90DF90CF90BF90AF909F908F9093
:10E5D0007F906F905F904F903F902F900895CF93D2
:10E5E000DF93CDB7DEB7CF52D1400FB6F894DEBF80
:10E5F0000FBECDBF01E20EBF0FEF0DBF94B7F89471
:10E60000A89514BE8091600088618093600010928C
:10E610006000789493FF05C0E0910402F091050238
:10E620001995279A2F9A8091C00082608093C0002C
:10E6300080E18093C40088E18093C100000000E085
:10E6400010E0C12CD12C7601B7EC8B2EBBE19B2EB8
:10E65000A12CB12C8091C00087FD26C001151105A9
:10E6600019F525E02A95F1F700003FEFC31AD30A08
:10E67000E30AF30A91E080E041E2C4164EE4D406D6
:10E68000E104F10408F490E0092F182FC701B60146
:10E69000A50194010F943DFB672B682B692BD1F6E4
:10E6A00085B1805885B9D6CF0F5F1F4F0130110556
:10E6B00011F00D94FFFAC65DDE4F19821882CA521E
:10E6C000D140E12CF12C612CB12CCA5DDE4F1982B6
:10E6D0001882C652D140CE5DDE4F188219821A824E
:10E6E0001B82C252D140212C312C210120E030E08C
:10E6F00080E001301105C1F041E052E16AE770E0CD
:10E700009091C00097FD10C04150510961097109F5
:10E71000B9F76BBFFA01479156914F3F5F4F61F3D5
:10E72000EE27FF270994E8CF9091C600C65DDE4F23
:10E73000A881B981CA52D1401196C65DDE4FB98316
:10E74000A883CA52D140913209F0F7C41A9708F051
:10E7500052C5BFEFEB1AFB0AE3E0EE16F10409F035
:10E760004CC5A5E0EA2EF12C09E110E081E20F94FE
:10E77000B4F101501109D1F70F94E3F1F1E0EF1A70
:10E78000F10891F710920E0210920F0210921002EF
:10E790001092110210920A0210920B0210920C02B7
:10E7A00010920D02109206021092070210920802B7
:10E7B0001092090260E086EE92EE0F94E9F11FEFED
:10E7C000F9E07F2E60E08AED92EE0F94CFF10F9486
:10E7D00044F2082F803608F00F75003230F0802F99
:10E7E0000F94B4F180E20F94B4F1063409F4CFC170
:10E7F00008F097C0003409F408C108F08BC000335A
:10E8000009F4EDC00F3309F092C462E08BE691EE9B
:10E810000F94E9F160E086EE92EE0F94E9F160E08A
:10E8200086EC92EE0F94CFF160E083E392EE0F94CA
:10E83000E9F160E087EB92EE0F94CFF160E087E0C2
:10E8400093EE0F94E9F160E088EA92EE0F94CFF135
:10E8500086E30F94B4F10F94E3F160E08AE892EE5E
:10E860000F94CFF160E087E292EE0F94E9F160E05F
:10E8700089E992EE0F94CFF160E08DE292EE0F9471
:10E88000E9F160E08BE792EE0F94CFF18EE10F9407
:10E89000F9F188E90F94F9F181E00F94F9F10F94FF
:10E8A000E3F160E08CE692EE0F94CFF1E0E0F0E06F
:10E8B0007092570084910F94F9F10F94E3F160E0A6
:10E8C0008DE592EE0F94CFF1E3E0F0E07092570007
:10E8D00084910F94F9F10F94E3F160E08EE492EEED
:10E8E0000F94CFF1E2E0F0E07092570084910F9422
:10E8F000F9F10F94E3F160E08FE392EE0F94CFF122
:10E90000E1E0F0E07092570084910F94F9F10F94D8
:10E91000E3F158CF023409F4F6C0053409F40DC10F
:10E9200006C4013509F497C168F5083409F453C1E8
:10E930000C3409F0FCC362E08EE191EE0F94E9F132
:10E9400081E40F944BF282E40F944BF283E40F9432
:10E950004BF284E40F944BF285E40F944BF286E47F
:10E960000F944BF287E40F944BF288E40F944BF230
:10E970008AE40F944BF28BE40F944BF28CE40F94E7
:10E980004BF220CF063509F470C1093509F4D5C220
:10E99000023509F0CCC362E08CE091EE0F94E9F10E
:10E9A00040910E0250910F0260911002709111027D
:10E9B00082E00F9458F280910E0290910F02A09184
:10E9C0001002B09111029F5FAF4FBF4F80930E02B4
:10E9D00090930F02A0931002B0931102F3CE62E065
:10E9E00087E791EE0F94E9F110920A0210920B0260
:10E9F00010920C0210920D0210920E0210920F0251
:10EA0000109210021092110275C062E08DE591EE35
:10EA10000F94E9F160E08FE991EE0F94E9F10F9422
:10EA2000E3F1E12CF12CC7018A519D41A0E0B0E057
:10EA3000ABBFFC0107910A32B9F0E11422E0F20603
:10EA400099F0602FC7010F9482FB011106C060E0AE
:10EA50008BEA91EE0F94CFF103C0802F0F94B4F1A5
:10EA6000FFEFEF1AFF0ADFCF0F94E3F10F94E3F10A
:10EA700060E084E991EE0F94E9F10F94E3F1C12C89
:10EA8000D12CE12CF12CC7018A519D41A0E0B0E0CE
:10EA9000ABBFFC0107910A32D9F0E11452E0F50650
:10EAA000B9F0C7010F947AFBB82E811106C060E05F
:10EAB0008BEA91EE0F94CFF102C00F94B4F1B0162F
:10EAC00019F03FEFC31AD30A4FEFE41AF40ADBCF71
:10EAD0000F94E3F10F94E3F160E088E891EE0F9476
:10EAE000CFF161E070E0C6010F9410F20F94E3F1F2
:10EAF0000F94E3F11092060210920702109208029E
:10EB0000109209025FCE62E081E591EE0F94E9F187
:10EB1000279A2F9A8091C00087FD0CC02F9884E619
:10EB200090E00F94C0F12F9A84E690E00F94C0F12A
:10EB3000F1CF12B80F9444F245CE62E083E491EE37
:10EB40000F94E9F14091060250910702609108028A
:10EB50007091090281E00F9458F280910602909121
:10EB60000702A0910802B09109029F5FAF4FBF4F0B
:10EB70008093060290930702A0930802B0930902C3
:10EB800081159041A105B10508F41CCEB3CF62E018
:10EB900086E391EE0F94E9F140910A0250910B0245
:10EBA00060910C0270910D0280E00F9458F28091F8
:10EBB0000A0290910B02A0910C02B0910D029F5F8E
:10EBC000AF4FBF4F80930A0290930B02A0930C02A9
:10EBD000B0930D02F7CD62E08FE291EE0F94E9F170
:10EBE00060E087E791EE0F94E9F160E08BE691EE4B
:10EBF0000F94E9F160E08DE591EE0F94E9F160E0AA
:10EC000081E591EE0F94E9F160E083E491EE0F94D9
:10EC1000E9F160E086E391EE0F94E9F160E08FE2C4
:10EC200091EE0F94E9F160E08EE191EE0F94E9F13D
:10EC300060E087E191EE0F94E9F160E08CE091EE05
:10EC40000F94E9F160E083EF90EE0F94E9F160E05A
:10EC500086EE90EE6FC262E087E191EE0F94E9F1EB
:10EC6000E12CF12C77247394DBC262E083EF90EE09
:10EC70000F94E9F160E087E093EE0F94E9F160E032
:10EC800082EF91EE0F94E9F1C85DDE4F1982188290
:10EC9000C852D140C25EDE4F188219821A821B828E
:10ECA000CE51D140C25EDE4F88819981AA81BB815D
:10ECB000CE51D140B695A79597958795C45DDE4F07
:10ECC00088839983AA83BB83CC52D140C85DDE4F31
:10ECD000A881B981C852D1401196C85DDE4FB98371
:10ECE000A883C852D14062E070E0CD010F9410F2C9
:10ECF00080E20F94B4F18DE20F94B4F180E20F94AE
:10ED0000B4F180E00F94F9F1C45DDE4F8881CC52FC
:10ED1000D1400F94F9F180E20F94B4F18DE30F9498
:10ED2000B4F180E20F94B4F1C25EDE4F28813981E4
:10ED30004A815B81CE51D1404BBFF901F790DA0196
:10ED4000C9010196A11DB11DABBFFC01E790DA011D
:10ED5000C9010296A11DB11DABBFFC01D790DA011C
:10ED6000C9010396A11DB11DABBFFC0107912C5F2A
:10ED70003F4F4F4F5F4FC25EDE4F288339834A8338
:10ED80005B83CE51D1408E2C912CA12CB12CBA2C6E
:10ED9000A92C982C88248F0C911CA11CB11C8E2DA1
:10EDA0000F94F9F180E20F94B4F18F2D0F94F9F1E3
:10EDB00080E20F94B4F1802F0F94F9F180E20F9468
:10EDC000B4F18D2D0F94F9F180E20F94B4F13FEF7F
:10EDD00083169306A104B10431F460E088EE91EE4D
:10EDE0000F94CFF19EC0D501C4018827907CAA273B
:10EDF000BB278115904CA105B10549F5750164014A
:10EE00005FE3D522EE24FF24C45DDE4F8880998025
:10EE1000AA80BB80CC52D1408C0C9D1CAE1CBF1C68
:10EE2000880C991CAA1CBB1C60E081EE91EE0F942B
:10EE3000CFF18D2D0F94F9F18C2D0F94F9F180E223
:10EE40000F94B4F18EE30F94B4F180E062C06EE0F1
:10EE50008622E89490F8AA24BB247CE0871674E903
:10EE60009706A104B10409F05CC04F2D417050E039
:10EE700060E070E0DA0199278827402F50E060E0D9
:10EE800070E0762F652F542F44274D0D511D611DC5
:10EE9000711D480F591F6A1F7B1F8F2D807F90E0C7
:10EEA000A0E0B0E031E1880F991FAA1FBB1F3A957F
:10EEB000D1F7840F951FA61FB71F2E2D2170C22ECC
:10EEC000D12CE12CF12C45E1CC0CDD1CEE1CFF1CFF
:10EED0004A95D1F7C80ED91EEA1EFB1E46015701FE
:10EEE000880C991CAA1CBB1C60E08CED91EE0F9461
:10EEF000CFF18E2D0F94F9F18D2D0F94F9F18C2D0A
:10EF00000F94F9F180E20F94B4F18EE30F94B4F111
:10EF10008A2D0F94F9F1892D0F94F9F1882D0F9412
:10EF2000F9F10F94E3F1C85DDE4F88819981C852F1
:10EF3000D140C99709F0B6CE45CC62E086EE90EE9E
:10EF40000F94E9F160E081ED91EE0F94CFF10F9411
:10EF500044F2082F0F75802F0F94B4F10F94E3F152
:10EF60008FEB800F8A3108F0DEC0063409F471C0DF
:10EF700098F4033409F441C038F4013419F102342F
:10EF800009F0CDC014B92BC0043409F445C00534D0
:10EF900009F0C5C01DB94FC00A3409F489C048F44E
:10EFA000073409F465C0083409F0B9C010930101B1
:10EFB0006EC00B3409F48FC00C3409F0B0C010934C
:10EFC0000A019CC011B98091C00087FDB2CD82B109
:10EFD000809582B988EC90E00F94C0F1F4CF8091D5
:10EFE000C00087FD08C085B1809585B988EC90E0A8
:10EFF0000F94C0F1F4CF15B89DCD17B98091C00022
:10F0000087FD08C088B1809588B988EC90E00F949E
:10F01000C0F1F4CF18B88ECD1AB98091C00087FD29
:10F0200008C08BB180958BB988EC90E00F94C0F14B
:10F03000F4CF1BB87FCD8091C00087FD08C08EB192
:10F0400080958EB988EC90E00F94C0F1F4CF1EB893
:10F0500071CD10BB8091C00087FD08C081B3809541
:10F0600081BB88EC90E00F94C0F1F4CF11BA62CD6F
:10F0700013BB8091C00087FD08C084B3809584BB1A
:10F0800088EC90E00F94C0F1F4CF14BA53CD809186
:10F09000C00087FD0AC08091020180958093020123
:10F0A00088EC90E00F94C0F1F2CF1092020142CDB3
:10F0B000109304018091C00087FD0AC08091050172
:10F0C00080958093050188EC90E00F94C0F1F2CF19
:10F0D000109205012FCD109307018091C00087FD8C
:10F0E0000AC08091080180958093080188EC90E027
:10F0F0000F94C0F1F2CF109208011CCD8091C00096
:10F1000087FD0AC080910B01809580930B0188ECEC
:10F1100090E00F94C0F1F2CF10920B010BCD60E0A4
:10F120008EEB91EE07C060E08DEA91EE03C060E0E7
:10F1300085ED92EE0F94E9F145CB833029F120F46F
:10F14000813099F050F017C0853089F118F1863080
:10F1500009F060C0E12CF12C5AC0E12CF12C9B315C
:10F1600009F461C200E010E0C4CAE12CF12CB92618
:10F17000692E82E0F7CFE12CF12C292F30E0322FDD
:10F180002227B92683E0EECFE12CF12C292BB926DA
:10F1900084E0E8CF9E3009F04AC2B926E12CF12C78
:10F1A000CA5DDE4F19821882C652D14022C0E12CBE
:10F1B000F12CCA5DDE4F48815981C652D1404F5F64
:10F1C0005F4FE1E0F0E0EC0FFD1FCA5DDE4FA8816C
:10F1D000B981C652D140EA0FFB1F9083B92642176E
:10F1E000530709F427C2CA5DDE4F59834883C652CC
:10F1F000D14085E0B7CFE12CF12C833039F208F40F
:10F2000021C28530B1F208F422C2863029F49B1164
:10F210001EC205C0E12CF12C873009F0A3CF712C60
:10F220002981233109F4D8C060F5263009F4C6C01D
:10F23000F8F4223009F4CEC0233009F464C0213040
:10F2400009F0A8C11A8288E08B8381E48C8386E56B
:10F250008D8382E58E8389E48F8383E5888780E5CB
:10F2600089878FE58A8782E38B870BE010E096C160
:10F27000213109F455C008F094C0203109F4AAC026
:10F2800089C1283109F466C048F4253109F4A4C0C5
:10F2900008F430C1263109F42DC17CC12A3109F4AA
:10F2A0004DC008F46DC02B3109F43DC02D3109F07B
:10F2B00071C19D81903339F48F818823B1F0813001
:10F2C000B1F488E917C0892F807599F0903521F441
:10F2D00089E0E0E0F0E005C0983559F489E0E3E02A
:10F2E000F0E080935700849105C08EE103C081E077
:10F2F00001C080E01A821B829C831D828E831F8244
:10F3000007E010E04BC1EA81E059E33028F4F0E077
:10F31000E050FE4F808101C080E01A828B833EC0A6
:10F320007724739457C08D81882321F0813021F494
:10F3300088E924C08EE122C081E020C01A82E1E089
:10F34000F0E089E08093570084918B831C8204E075
:10F3500010E024C18B81803559F48C81883021F4F0
:10F36000E2E0F0E089E007C089E0E0E0F0E003C01F
:10F3700089E0E3E0F0E08093570084911A82E5CFC2
:10F380008D81836C99E0E1E0F0E0082E90935700C6
