:100000000C940B020C943C020C943C020C943C02A9
:100010000C943C020C943C020C943C020C943C0268
:100020000C943C020C943C020C943C020C943C0258
:100030000C943C020C943C020C943C020C943C0248
:100040000C943C020C943C020C943C020C943C0238
:100050000C943C020C943C020C943C020C945D13F6
:100060000C943C020C94D1130C94A7130C943C02F6
:100070000C943C020C943C020C943C020C943C0208
:100080000C943C020C943C020C943C020C943C02F8
:100090000C943C020C943C020C943C020C9407140B
:1000A0000C943C020C943C020C943C020C943C02D8
:1000B0000C943C020C943C020C943C020C943C02C8
:1000C0000C943C020C943C020C943C020C943C02B8
:1000D0000C943C020C943C020C943C020C943C02A8
:1000E0000C943C020C9478030C9490040C94A90397
:1000F0000C9486040C9489030C949E120C946E0349
:100100000C9443070C94A8020C9449020C948208A6
:100110000C94E1040C946D040C943F100C94411069
:100120000C949B030C94FF040C9469050C94BE047E
:100130000C94AF030C94F5020C9480030C945312AE
:100140000C94B4040C9458020C945C0F0C94EC06C0
:100150000C9493030C947C030C94B3030C94160737
:100160000C9472070C94CD040C9465040C94B5188F
:100170000C94170F0C9483030C9404120C947204C7
:100180000C94EB040C940F070C94D7040C946805A2
:100190000C94AE030C94F5040C948D030C947C0425
:1001A0000C94AA040C94A1030C946C020C94830884
:1001B0000C9474030C94A0040C94A5030C94970362
:1001C0000C94F51F0C94ED060C94FC060C94D20FC5
:1001D0000C9467050C943D100C947A020C94431017
:1001E0000C9498046E616E00696E660000407A108F
:1001F000F35A00A0724E18090010A5D4E80000E8D8
:100200007648170000E40B54020000CA9A3B000035
:1002100000E1F505000080969800000040420F00C4
:100220000000A08601000000102700000000E80385
:10023000000000006400000000000A000000000050
:100240000100000000002C76D888DC674F0823DF0F
:10025000C1DFAE59E1B1B796E5E3E453C63AE651E2
:10026000997696E8E6C28426EB898C9B62ED407C09
:100270006FFCEFBC9C9F40F2BAA56FA5F490055AA5
:100280002AF75C936B6CF9676DC11BFCE0E40D47CA
:10029000FEF520E6B500D0ED902E030094357705ED
:1002A0000080841E080000204E0A000000C80C33A5
:1002B0003333330F986E12831141EF8D2114893B34
:1002C000E65516CFFEE6DB18D1844B381BF77C1DB4
:1002D000901DA4BBE424203284725E228100C9F107
:1002E00024ECA1E53D270A0B0C0D0E0F00002000A9
:1002F0002300260029002C002F00320000010000FE
:1003000003010601090100002100240027002A0042
:100310002D003000330001010000040107010A0133
:1003200000002200250028002B002E0031003400A0
:1003300002010000050108010B010505050507057F
:1003400008080808020202020A0A08080404040451
:10035000010101010101010103030303030303037D
:10036000040707070C0C0C0C0C0C0C0C020202020C
:1003700006060606060606060B0B0B0B0B0B0B0BF5
:1003800001021020200808102040102040800201A7
:10039000020108040201010204081020408080408C
:1003A000201008040201800402018040201008048B
:1003B0000201080402010102040810204080010229
:1003C00004081020408000000A0B02090C0D0E08E2
:1003D000070304010000000000000000000000000E
:1003E000000000000000000000000000000000000D
:1003F00000001211100000000000000000000000CA
:1004000000000000000000000000000000010203E6
:100410000405B518F51F11241FBECFEFD1E2DEBFD2
:10042000CDBF00E00CBF25E0AAE4B3E001C01D92FF
:10043000A533B207E1F713E0A0E0B2E0E4ECFAE4A0
:1004400000E00BBF02C007900D92AA34B107D9F7A4
:1004500012E0CAE0D2E000E006C021970109802F37
:10046000FE010E94D923C930D10780E00807A9F70F
:100470000E941F190C9450250C94000082309105A5
:1004800038F0880F991F880F991F05970197F1F78A
:100490000895FC01538D448D252F30E0842F90E08A
:1004A000821B930B541710F0CF960895019708956F
:1004B000FC01918D828D981761F0A28DAE0FBF2F38
:1004C000B11D5D968C91928D9F5F9F73928F90E08E
:1004D00008958FEF9FEF0895FC01918D828D9817FD
:1004E00031F0828DE80FF11D858D90E008958FEF3A
:1004F0009FEF0895FC01918D228D892F90E0805C03
:100500009F4F821B91098F7399270895FC01A48D39
:10051000A80FB92FB11DA35ABF4F2C91848D90E025
:1005200001968F739927848FA689B7892C93A08908
:10053000B1898C91837080648C93938D848D981392
:1005400006C00288F389E02D80818F7D8083089525
:10055000EF92FF920F931F93CF93DF93EC0181E013
:10056000888F9B8D8C8D98131AC0E889F9898081BA
:1005700085FF15C09FB7F894EE89FF896083E889ED
:10058000F98980818370806480839FBF81E090E0DF
:10059000DF91CF911F910F91FF90EF900895F62E6C
:1005A0000B8D10E00F5F1F4F0F731127E02E8C8D06
:1005B0008E110CC00FB607FCFACFE889F98980814B
:1005C00085FFF5CFCE010E948602F1CFEB8DEC0FB7
:1005D000FD2FF11DE35AFF4FF0829FB7F8940B8F68
:1005E000EA89FB8980818062CFCFCF93DF93EC01D2
:1005F000888D8823B9F0AA89BB89E889F9898C910B
:1006000085FD03C0808186FD0DC00FB607FCF7CFC6
:100610008C9185FFF2CF808185FFEDCFCE010E94C6
:100620008602E9CFDF91CF9108958FE294E00E9496
:100630007A0221E0892B09F420E0822F089580E0DE
:1006400090E0892B29F00E94150381110E9400007F
:1006500080E090E0892B49F080E090E0892B29F040
:100660000E94000081110E94000080E090E0892B30
:1006700049F080E090E0892B29F00E940000811170
:100680000E94000080E090E0892B49F080E090E03B
:10069000892B29F00E94000081110C94000008951C
:1006A0008150823108F05AC0E82FF0E08827E45AE0
:1006B000FC4F8F4F0C94D9237C0380036E0374038B
:1006C0007803AE03830389038D03930397039B038E
:1006D000A103A503AE03A903AF03B3038091800078
:1006E0008F77809380000895809180008F7DF9CF6F
:1006F00080918000877FF5CF84B58F7784BD089582
:1007000084B58F7DFBCF8091B0008F778093B00050
:1007100008958091B0008F7DF9CF809190008F7700
:10072000809390000895809190008F7DF9CF809103
:100730009000877FF5CF8091A0008F778093A000F5
:1007400008958091A0008F7DF9CF8091A000877FD0
:10075000F5CF809120018F778093200108958091BB
:1007600020018F7DF9CF80912001877FF5CF1F93E6
:10077000CF93DF93282F30E0F901EA53FC4F8491A7
:10078000F901E058FC4FD491F901E65CFC4FC491AB
:10079000CC23A9F0162F81110E945003EC2FF0E01A
:1007A000EE0FFF1FE05EFC4FA591B4918FB7F89458
:1007B000EC91111108C0D095DE23DC938FBFDF913F
:1007C000CF911F910895DE2BF8CFCF93DF93C3E134
:1007D000D5E0682F8B810E94B7038A8D9B8DDF91B6
:1007E000CF910C943E02682F8091150590911605CB
:1007F00089130C94B7030895CF93DF9390E0FC0125
:10080000E058FC4F2491865C9C4FFC018491882326
:10081000D1F090E0880F991FFC01EA5FFC4FA59191
:10082000B491FC01E05EFC4FC591D49161110EC002
:100830009FB7F8948C91E22FE0958E238C932881BA
:10084000E223E8839FBFDF91CF9108958FB7F8949B
:10085000EC91E22BEC938FBFF6CF1F93CF93DF93F6
:10086000182FEB0161E00E94FC03209739F460E04F
:10087000812FDF91CF911F910C94B703CF3FD1050A
:1008800011F461E0F5CFE12FF0E0EA53FC4FE49181
:10089000E150E23108F0B3C0F0E08827ED5AFB4F99
:1008A0008F4F0C94D92365046D0472047C04860474
:1008B000FF0490049804A004AA04B404BE04CD0468
:1008C000D704FF04E104EB04F50484B5806884BD1B
:1008D000C7BDDF91CF911F91089584B5806284BD1B
:1008E000C8BDF7CF80918000806880938000D0934E
:1008F0008900C0938800EDCF809180008062809352
:100900008000D0938B00C0938A00E3CF8091800059
:10091000886080938000D0938D00C0938C00D9CFE5
:100920008091B00080688093B000C093B300D1CFB5
:100930008091B00080628093B000C093B400C9CFB2
:1009400080919000806880939000D0939900C0932C
:100950009800BFCF80919000806280939000D093E8
:100960009B00C0939A00B5CF8091900088608093DF
:100970009000D0939D00C0939C00ABCF8091A000CD
:1009800080688093A0008091A0008F7B8093A0005E
:10099000D093A900C093A8009CCF8091A000806252
:1009A0008093A000D093AB00C093AA0092CF809117
:1009B000A00088608093A000D093AD00C093AC00ED
:1009C00088CF80912001806880932001D0932901F5
:1009D000C09328017ECF8091200180628093200106
:1009E000D0932B01C0932A0174CF8091200188609D
:1009F00080932001D0932D01C0932C016ACFC03881
:100A0000D1050CF03ECF33CF3FB7F8948091DB0394
:100A10009091DC03A091DD03B091DE0326B5A89B85
:100A200005C02F3F19F00196A11DB11D3FBFBA2F80
:100A3000A92F982F8827BC01CD01620F711D811D40
:100A4000911D42E0660F771F881F991F4A95D1F7C5
:100A500008958F929F92AF92BF92CF92DF92EF92C2
:100A6000FF924B015C010E9404056B017C010E9416
:100A700004056C197D098E099F09683E7340810544
:100A80009105A8F321E0821A9108A108B10888EE27
:100A9000C80E83E0D81EE11CF11C81149104A1044E
:100AA000B10429F7FF90EF90DF90CF90BF90AF9007
:100AB0009F908F9008952FB7F8946091D70370910D
:100AC000D8038091D9039091DA032FBF0895089538
:100AD0000895AF92BF92CF92DF92EF92FF920F9361
:100AE0001F93CF93DF936C017B018B01040F151FC4
:100AF000EB015E01AE18BF08C017D10759F069912C
:100B0000D601ED91FC910190F081E02DC60119957F
:100B1000892B79F7C501DF91CF911F910F91FF903C
:100B2000EF90DF90CF90BF90AF90089520918C030D
:100B3000260F3327331F21323105ECF420910504B1
:100B4000FC0190E080E0243069F082E00895A091FB
:100B50008C032191AC0144595C4FA40FB52FB11DFA
:100B60002C930196861798F380918C03680F6093FD
:100B70008C0380E0089581E008951092050481E0DF
:100B8000809304041092DF0361E084E10E94B703C4
:100B900061E085E10E94B703E9EBF0E080818E7FA0
:100BA000808380818D7F808388E48093B80085E492
:100BB0008093BC000895CF93DF9391E090936B03F3
:100BC0008823B9F0C091B800D091BA008091BC00E0
:100BD0008A7B8093BC0060E084E10E94B70360E000
:100BE00085E10E94B7030E94BD05D093BA00C0936F
:100BF000B800DF91CF9108958F929F92AF92BF92EC
:100C0000CF92DF92EF92FF920F931F93CF93DF93D8
:100C1000D0912E04D13208F0D7C0182FC0912D04E6
:100C20000E9404056B017C018091050481116BC059
:100C300082E080930504109304048FEF80930304F3
:100C400010920204D0930104ADE0B4E0E1EEF3E0D1
:100C500080E0D81391C01092E0038091E003CC0FA4
:100C6000C82BC093E0038091DF03813009F088C076
:100C70001092DF030E9404056B017C018091E00368
:100C80008093BB008091070490910804A09109040F
:100C9000B0910A04892B8A2B8B2BA1F00E940405AA
:100CA00000910704109108042091090430910A046E
:100CB0006C197D098E099F09061717072807390740
:100CC00008F442C08091BC0083FDD8CF85EC8093AE
:100CD000BC000E9404056B017C01809105048230F8
:100CE00009F450C0809103048F3F09F46FC08091D4
:100CF0000304803209F46CC080910304803309F44A
:100D000069C084E026C08091070490910804A091F6
:100D10000904B0910A04892B8A2B8B2B09F484CF08
:100D20000E9404058090070490900804A090090494
:100D3000B0900A046C197D098E099F0986169706E2
:100D4000A806B90608F070CF809106040E94DB0562
:100D500085E010920C0410922E0410920B04DF9187
:100D6000CF911F910F91FF90EF90DF90CF90BF90A8
:100D7000AF909F908F9008959D9191938F5F69CFD1
:100D800085EEA5CF8091070490910804A0910904F5
:100D9000B0910A04892B8A2B8B2B09F49ECF0E94D9
:100DA0000405009107041091080420910904309172
:100DB0000A046C197D098E099F0906171707280771
:100DC000390708F08ACFC0CF81E0C3CF80E0C1CF20
:100DD00082E0BFCF83E0BDCF0895E091B50380915D
:100DE000B403E81730F4F0E0E55BFC4F808190E05D
:100DF00008958FEF9FEF08959091B5038091B4030C
:100E00002FEF3FEF981748F4E92FF0E0E55BFC4F38
:100E1000208130E09F5F9093B503C90108958091D0
:100E2000B4039091B503891B990B0895CF92DF927B
:100E3000EF92FF920F931F93CF93DF937C01CB012F
:100E40008A0120910B04222389F0EB016B01C40E6F
:100E5000D51ECC15DD0569F06991D701ED91FC91A6
:100E60000190F081E02DC7011995F3CF642F0E9406
:100E70009605C801DF91CF911F910F91FF90EF90E0
:100E8000DF90CF900895CF93DF931F92CDB7DEB759
:100E9000698320910B042223F9F020912E04203243
:100EA00058F021E030E0FC013383228390E080E0C1
:100EB0000F90DF91CF91089580910C04E82FF0E01E
:100EC000E35FFB4F998190838F5F80930C04809345
:100ED0002E0481E090E0ECCF61E0CE0101960E940B
:100EE0009605F7CF90E080E00895AF92BF92CF9241
:100EF000DF92EF92FF920F931F93CF93DF93EC015A
:100F000088819981892B89F06EBD0DB407FEFDCFD4
:100F1000BEB48B2DDF91CF911F910F91FF90EF9079
:100F2000DF90CF90BF90AF9008958885998511E0AC
:100F3000892B09F010E8AA24A394862F812309F0B5
:100F4000A12C062F2C813D814E815F8160E271EAE8
:100F500087E090E00E94B723F22EB02EE12CC22E43
:100F6000D12CFF2019F0C6010E943E028A85877F9E
:100F700009F042C08D858F3F89F0902F912381E049
:100F800009F480E08A1551F0EF85F8898F8999235B
:100F900069F19081892B8083AA24A394E989FA8935
:100FA0008081998D892B8083FF2019F0C6010E94D2
:100FB0003E028E858F3F39F0EB89FC898081988DC8
:100FC000892309F0E12AE989FA899081898D809540
:100FD000892380838E858F3F09F0BE2C8885998573
:100FE000892BB9F5110F1111BCCF93CF908180954A
:100FF00089238083A12CD2CFE989FA898081998DB8
:10100000892B8083FF2019F0C6010E943E028D8546
:101010008F3F49F0EF85F8898F89902F9123A9F0B0
:101020009081892B8083E989FA899081898D8095C7
:10103000892380838E858F3F69F2EB89FC898081CB
:10104000988D892339F2E12AC5CF90818095892333
:10105000E9CF1695C8CF1F93CF93DF93EA01122FE4
:10106000DC0111968D919C91DC01ED91FC91028047
:10107000F381E02D1995C817D90729F4812F0E9413
:10108000FC0591E0811190E0892FDF91CF911F91B4
:101090000895CF93DF93EC018B818823A1F08881A1
:1010A00091E090930B0480932D0410920C04109205
:1010B0002E0481E00E94FC0591E0811190E0892FCF
:1010C000DF91CF9108951092B5031092B40310925E
:1010D0000C0410922E040E94BD0587E695E09093C3
:1010E000B1038093B00388E695E09093B3038093B7
:1010F000B20381E08B83CE010E944908982F8111B1
:10110000CECFDDCF089508958FB7F89480914A032C
:101110008FBF0895FC0183858F3F19F061E00C9427
:10112000B703089581E00C94E5038EBD00000DB473
:1011300007FEFDCF8EB508958CBD9DBD0895CF935C
:10114000DF93EC0188819981892B31F0EA81FB8161
:10115000808191810E949C088B858F3F29F060E0FF
:10116000DF91CF910C94B703DF91CF9108958F92C7
:101170009F92AF92BF92CF92DF92EF92FF920F9326
:101180001F93CF93DF937C014B016A01B22EA32EF4
:101190000E949F08E401C80CD91CCC15DD0569F438
:1011A000CB2DDA2D0C0F1D1FC017D10759F06FEF93
:1011B000C7010E9475078993F7CF6991C7010E9403
:1011C0007507EBCFC7010E948A0881E0DF91CF91BC
:1011D0001F910F91FF90EF90DF90CF90BF90AF9055
:1011E0009F908F9008958F929F92AF92BF92CF92CF
:1011F000DF92EF92FF920F931F93CF93DF937C01C7
:10120000B62EA72E6A0149010E949F08E401080D2D
:10121000191DC017D10761F4CB2DDA2DCC0EDD1EC0
:10122000CC15DD0551F06991C7010E947507F8CF13
:101230006991C7010E947507ECCFC7010E948A0817
:1012400081E0DF91CF911F910F91FF90EF90DF90A0
:10125000CF90BF90AF909F908F900895AF92BF9224
:10126000CF92DF92EF92FF920F931F93CF93DF9372
:101270001F921F92CDB7DEB7DC01211103C0189673
:101280002C911897253008F043C01F964D935D931D
:101290006D937C93529790E080E0E22EF12C8E15B6
:1012A0009F05B4F41A962C911A9721110AC0FD01DA
:1012B000E80FF91F4387452F562F672F7727019691
:1012C000EECFF701E81BF90BEA0FFB1F4287F3CFC4
:1012D0006D018BE0C80ED11C16969C91169717963F
:1012E0008C91179799838A83AD90BC901197A11424
:1012F000B10409F441C019960C9110E098012E0D2B
:101300003F1DD50114968D919C918217930710F47F
:1013100080E016C0F50181819281208131E0309317
:101320000B0420932D0410920C0410922E0401152E
:10133000110599F421E0A701B601C5010E942B080F
:101340000F900F90DF91CF911F910F91FF90EF9031
:10135000DF90CF90BF90AF900895DC01ED91FC91AC
:101360000280F381E02DA801BE016F5F7F4F1995C8
:101370000817190769F6DECF1296ED91FC911397C5
:10138000309731F214962D913C91159719960C9146
:1013900010E02330310571F48E7F89839A830F5FCB
:1013A0001F4F9E012F5F3F4FA701B601CF010E9443
:1013B000F308C6CF2115310519F49F779983F1CF32
:1013C0002230310511F49068F9CF2130310549F709
:1013D0009F779064F3CFCF93DF93D62FC42F682FDE
:1013E00088E00E94B7036D2F87E00E94B7036C2F3F
:1013F00086E0DF91CF910C94B7032F923F924F92EA
:101400005F926F927F928F929F92AF92BF92CF9294
:10141000DF92EF92FF920F931F93CF93DF9300D051
:101420001F92CDB7DEB7FC014B01042F9681878157
:1014300099838A83208031802114310409F439C1D1
:10144000418550E0D10114968D919C9184179507A8
:10145000C8F4B12C8B2D0F900F900F900F90DF914F
:10146000CF911F910F91FF90EF90DF90CF90BF90A1
:10147000AF909F908F907F906F905F904F903F9034
:101480002F900895F101808191E090930B04809357
:101490002D0410920C0410922E0420E0BE016F5F08
:1014A0007F4FC1010E942B08B82E882391F2802F14
:1014B00090E09C838B83D12CC12C01E0AB81BC815B
:1014C000CA16DB0638F6F101848195817D01EC189E
:1014D000FD088E159F0508F47C01D101AC900E9497
:1014E00004052B013C0180910504811172C01E2D61
:1014F000113208F010E20093050421E08B819C81F9
:101500008E199F09C816D90608F420E02093040418
:10151000BFEFB0930304109202048FEF810F80930A
:1015200001040093E0038091E003AA0CA82AA09292
:10153000E0038091DF03813009F092C01092DF0355
:101540000E9404052B013C018091E0038093BB00C5
:101550008091070490910804A0910904B0910A04B5
:10156000892B8A2B8B2BA1F00E9404052091070464
:10157000309108044091090450910A0464197509D6
:1015800086099709261737074807590708F442C004
:101590008091BC0083FDD8CFE5ECE093BC000E94B5
:1015A00004052B013C0180910504813009F45CC0E5
:1015B00080910204811710F410910204A1EEB3E0AF
:1015C000EBE4F3E080E0811751F19D9191938F5FFF
:1015D000FACF8091070490910804A0910904B0917A
:1015E0000A04892B8A2B8B2B09F47DCF0E940405DA
:1015F00020910704309108044091090450910A0495
:101600006419750986099709261737074807590786
:1016100008F069CF809106040E94DB0510E010926B
:10162000B5031093B4031E151F0409F012CF340143
:101630006C0C7D1C2301C201861997098E159F052C
:10164000A8F5D10111968D919C91DC01ED91FC9151
:101650000284F385E02D1995F20181932F01EBCFE0
:10166000F5EEF093BC009BCF8091070490910804A5
:10167000A0910904B0910A04892B8A2B8B2B09F4C1
:1016800092CF0E94040520910704309108044091F4
:10169000090450910A0464197509860997092617E7
:1016A00037074807590708F07ECFB4CFCE0CDF1CB0
:1016B00005CFA281B381109709F4CBCE2481358167
:1016C00010E0418550E02330310571F48160898359
:1016D0009A834F5F5F4F9401BE016F5F7F4FCD01D3
:1016E0000E94B708B82EB6CE2115310519F49068BE
:1016F0009983F1CF2230310511F49F77F9CF213052
:10170000310549F7906CF4CFCF93DF93EC01BC0126
:10171000655F7F4F48850E94FD09882301F1488558
:1017200050E030E020E060E070E0CB0124173507A6
:10173000CCF4982F872F762F6627EA85E1110AC00F
:10174000FA01E21BF30BEC0FFD1FE2856E2B2F5FFE
:101750003F4FECCFFE01E20FF31FE385F7CF6FEFB2
:101760007FEFCB01DF91CF9108958F929F92AF923F
:10177000BF92CF92DF92EF92FF920F931F93CF937E
:10178000DF93EC014A015B01888199810E94840BFF
:101790002A8101E010E002C0000F111F2A95E2F734
:1017A00001501109012E000C220B330BAB81680193
:1017B00079010A2E04C0CC0CDD1CEE1CFF1C0A941F
:1017C000D2F7C094D094E094F094C622D722E822B5
:1017D000F922E881F981B901A801482159216A213A
:1017E0007B2104C0440F551F661F771FAA95D2F7AF
:1017F0004C295D296E297F292085CF01DF91CF916A
:101800001F910F91FF90EF90DF90CF90BF90AF901E
:101810009F908F900C942E090F931F93CF93DF937B
:10182000EC01888199810E94840BAB01BC012A8163
:1018300081E090E002C0880F991F2A95E2F7019796
:10184000092E000CAA0BBB0B2B8104C07695679563
:10185000579547952A95D2F78C019D0104231523AE
:1018600026233723C901B801DF91CF911F910F9132
:101870000895AF92BF92CF92DF92EF92FF920F93B3
:101880001F93CF93DF93CDB7DEB7E8970FB6F894E9
:10189000DEBF0FBECDBF8C01FC01868D978D1BA2D4
:1018A0001CA21DA21EA29D8B8C8B1F8A1E8AFF2448
:1018B000F394FD8E8BE390E09B8F8A8F1E8E8EE0DB
:1018C0008C8F4EE0BE01695D7F4FCE0144960E9431
:1018D000FD098FA198A5982789279827F80195A732
:1018E00084A789A59AA598278927982797A786A7C7
:1018F0008BA59CA598278927982791AB80AB6DA5D0
:101900007EA576276727762773AB62AB8FA598A94C
:1019100098278927982795AB84AB89A99AA99827F6
:101920008927982797AB86AB8BA99CA998278927ED
:10193000982791AF80AF072E000C880B990B0E945F
:10194000BE2220E030E04AEA53E40E94142228EB51
:101950003EE142E152E40E94A821F80162837383D0
:1019600084839583868D978D188A198A1A8A1B8A93
:101970009A8389831C821B82FA868CE190E0988787
:101980008F831B86F986CE0101965C019EAB8DABE1
:1019900082E08FAB83E088AFCE01C5960E940C0C2D
:1019A000C12CD12CE12CE5E4FE2E63307105E1F071
:1019B0006230710599F06130710509F4D6C0C12C0F
:1019C000D12CF0E8EF2EFFE3FF2E672B69F4C12C3A
:1019D000D12C50E8E52E56E4F52E06C0C12CD12CB2
:1019E00070E8E72E75E4F72EF80164A575A5072EBB
:1019F000000C880B990B0E94BE22A70196010E9441
:101A00001422F801668377838087918766A577A57E
:101A1000072E000C880B990B0E94BE22A70196018D
:101A20000E941422F801628773878487958760A9D2
:101A300071A9072E000C880B990B0E94BE22A701EA
:101A400096010E941422F80166877787808B918B1C
:101A5000868D978D188A198A1A8A1B8A9A83898398
:101A60001C821B8281E08A872BE130E038872F833C
:101A70001B868987BEAAADAA82E08FAB83E088AFC0
:101A8000CE01C5960E940C0CC12CD12C33E0E32E64
:101A900033E4F32E6115710519F1C12CD12C23E823
:101AA000E22E22E4F22E61307105D1F093E3C92ECB
:101AB000DC2C93E0E92E92E4F92E6230710581F07E
:101AC000C12CD12C40E8E42E4FE3F42E6330710595
:101AD00039F483E3C82EDC2C83E8E82E81E4F82E69
:101AE000F80164A975A9072E000C880B990B0E94B8
:101AF000BE22A70196010E941422F801628B738B0B
:101B0000848B958B66A977A9072E000C880B990BFF
:101B10000E94BE22A70196010E941422F801668B42
:101B2000778B808F918F60AD71AD072E000C880B85
:101B3000990B0E94BE22A70196010E941422F8016F
:101B4000628F738F848F958FE8960FB6F894DEBFFF
:101B50000FBECDBFDF91CF911F910F91FF90EF90FE
:101B6000DF90CF90BF90AF900895C12CD12CE12C85
:101B700066E4F62E39CF0F931F930091170510914D
:101B800018052091190530911A0540E052E16AE7E5
:101B900070E090E0041715072607370740F47695A4
:101BA0006795579547959F5F9630A1F797E0892FE6
:101BB000806A9095869591700E949C0880E01F91A4
:101BC0000F910C94E503CF93C82F0E94BB0D8C2F6F
:101BD00080620E94950880931B05CF910C94920817
:101BE00081EE0E94E30D80911B050895CF93DF9352
:101BF000D82FC62F0E94BB0D8D2F80620E949508A2
:101C000080931B058C2F0E949508DF91CF910C9437
:101C10009208682F85E00C94F60D6091220561FD15
:101C20000AC062606093220580E00E94F60D8BE19D
:101C30009EE40197F1F70895CF93C82F0E94BB0D42
:101C40008C2F0E94950880931B058FEF0E949508AA
:101C5000C82F0E9492088C2FCF91089580E00E9497
:101C6000F3038091290590912A050E943E028091FC
:101C7000250581110E94F00D609122056E7F609311
:101C8000220580E00E94F60D82E00E941C0EECE02E
:101C9000F4E0E49161E070E001C0660FEA95EAF7D4
:101CA000682B82E00C94F60DFF920F931F93CF9355
:101CB000DF93C82FF62E072F142F0E94BB0D8C2FF9
:101CC00080620E94950880931B05CF2DD02F115064
:101CD00020F089910E949508FACFDF91CF911F9152
:101CE0000F91FF900C9492080E940D0E60912205B6
:101CF00061606093220580E00E94F60D60E787E056
:101D00000E94F60D81E00E94F30380912405882350
:101D100039F0409126056DE175E08AE00C94540E8F
:101D200082E00E941C0EECE0F4E0E49121E030E05F
:101D300001C0220FEA95EAF72095622F682382E01E
:101D40000E94F60D109224050895EF92FF920F93D2
:101D50001F93CF93DF937C01162F80912705C0E05E
:101D6000D0E2811107C0C0911C05DC2FC13208F000
:101D7000D0E2CD1B0E94BB0D812F0E94950880935D
:101D80001B058701D15030F0F80181918F010E942D
:101D90009508F8CFC15020F080E00E949508FACF56
:101DA000DF91CF911F910F91FF90EF900C949208CB
:101DB000CF92DF92EF92FF92CF93DF93EC010E94DC
:101DC0005B056B017C018FEF0E94E30D80911B0589
:101DD00080FF12C084FD0EC00E945B056C197D0956
:101DE0008E099F09603671058105910560F381E0D8
:101DF0008093280580E008C060EBCE010E94A50E0C
:101E000081E00E94F30381E0DF91CF91FF90EF909A
:101E1000DF90CF9008950E94BB0D80E50E94950849
:101E200080931B0583E70E9495080C9492080F93FA
:101E30001F93CF93DF938C01EB01DC0114968D91FE
:101E40009C910E94390CF801048115810E945B0568
:101E5000AB01BC01FE01349680E2DF011D928A9540
:101E6000E9F784E290E0A0E0B0E088839983AA8358
:101E7000BB83F80182A593A5B0E0A0E08C839D838D
:101E8000AE83BF838DE090E0A0E0B0E088879987C3
:101E9000AA87BB87488B598B6A8B7B8B8281938106
:101EA000A481B5818C8B9D8BAE8BBF8B81E0DF9144
:101EB000CF911F910F9108958F929F92AF92BF92F1
:101EC000CF92DF92EF92FF920F931F93CF93DF9306
:101ED0008C01EB01DC0114968D919C910E94390CD0
:101EE000F801048115810E945B05FE01349620E211
:101EF000DF011D922A95E9F7C12CD12C7601C394FC
:101F0000C882D982EA82FB82F80126A137A1490161
:101F1000B12CA12C8C829D82AE82BF82C886D986CC
:101F2000EA86FB86688B798B8A8B9B8B2AE038EE5E
:101F30004CE151E466817781808591850E944A2336
:101F40006C8B7D8B8E8B9F8B2AE038EE4CE151E4BD
:101F5000D8011A966D917D918D919C911D970E944B
:101F60004A23688F798F8A8F9B8F2AE038EE4CE165
:101F700051E4F80166857785808991890E944A231A
:101F80006C8F7D8F8E8F9F8F81E0DF91CF911F911E
:101F90000F91FF90EF90DF90CF90BF90AF909F9008
:101FA0008F9008950F931F93CF93DF938C01EB01D4
:101FB000DC0114968D919C910E94390CF8010481EA
:101FC00015810E945B05AB01BC01FE01349680E2E5
:101FD000DF011D928A95E9F781E090E0A0E0B0E092
:101FE00088839983AA83BB83F80180A591A5B0E07B
:101FF000A0E08C839D83AE83BF8384E090E0A0E06B
:10200000B0E088879987AA87BB87488B598B6A8BF2
:102010007B8B25E33AEF4EE85CE362897389848920
:1020200095890E944A236C8B7D8B8E8B9F8B25E339
:102030003AEF4EE85CE3D80156966D917D918D9113
:102040009C9159970E944A23688F798F8A8F9B8F22
:1020500025E33AEF4EE85CE3F801628D738D848DE1
:10206000958D0E944A236C8F7D8F8E8F9F8F81E08C
:10207000DF91CF911F910F9108950C947D240C94C2
:102080007D240C947D249F92AF92BF92CF92DF92D9
:10209000EF92FF920F931F93CF93DF93CDB7DEB7ED
:1020A000AA970FB6F894DEBF0FBECDBF8C01DC013E
:1020B00097965C934E939697CA01019699969C9336
:1020C0008E9398974E5F5F4F9B965C934E939A9733
:1020D0005E962D913C911BA21CA21DA21EA23D8BBF
:1020E0002C8B1F8A1E8A81E08D8F4BE650E05B8F20
:1020F0004A8F1E8E8C8F188A198A1A8A1B8A3A83F5
:1021000029831C821B828A8728E630E038872F8348
:102110001B8689875E01B4E1AB0EB11CB8A6AFA2E5
:1021200089A787E08AA741E050E060E070E0CE0137
:1021300087960E94B50BCE0187960E940C0C6130E9
:1021400071058105910539F461E070E080E090E06F
:102150000E942905F0CF64E670E080E090E00E94E4
:10216000290520E047E050E060E070E0FE01319694
:102170006F01CF010E942E0964E670E080E090E0DC
:102180000E942905D8015E968D919C91188A198A22
:102190001A8A1B8A9A8389831C821B82FF24F394E8
:1021A000FA8689E190E098878F831B86F98620E084
:1021B00040E050E0BA01C6010E942E09F801868D68
:1021C000978D188A198A1A8A1B8A9A8389831C8296
:1021D0001B82FA868AE190E098878F831B86F986B6
:1021E000DD8ACC8A83E0E82EEE8A1F8A40E050E048
:1021F000BA01C5010E94B50BD8015E968D919C91E4
:10220000188A198A1A8A1B8A9A8389831C821B82DC
:10221000FA868BE190E098878F831B86F986DD8AAA
:10222000CC8A92E0992E9E8AEF8A41E050E060E0ED
:1022300070E0C5010E94B50BF801868D978D188A54
:10224000198A1A8A1B8A9A8389831C821B82FA86BE
:102250008CE190E098878F831B86F986DD8ACC8A93
:102260009E8AEF8A40E050E0BA01C5010E94B50B9A
:10227000D8015E968D919C91188A198A1A8A1B8AB8
:102280009A8389831C821B82FA868BE690E098876A
:102290008F831B86F98620E041E050E060E070E02B
:1022A000C6010E942E0964E670E080E090E00E9482
:1022B0002905F80180A191A1009739F0DC01ED9189
:1022C000FC910280F381E02D1995F80182A193A180
:1022D000009739F0DC01ED91FC910280F381E02D53
:1022E0001995F80184A195A1009739F0DC01ED91D1
:1022F000FC910280F381E02D199586E090E00E9428
:10230000E123FC0186E492E09183808380E596E0FE
:102310009383828315830483D8019196FC93EE9373
:10232000909786E090E00E94E123FC0188E392E030
:102330009183808381E596E0938382831583048370
:10234000D8019396FC93EE93929786E090E00E94DA
:10235000E123FC018AE292E09183808382E596E0AA
:102360009383828315830483D8019596FC93EE931F
:10237000949781E0AA960FB6F894DEBF0FBECDBF4A
:10238000DF91CF911F910F91FF90EF90DF90CF9051
:10239000BF90AF909F90089585ED8093BC00809191
:1023A000070490910804A0910904B0910A040796CB
:1023B000A11DB11D23E0B695A795979587952A9500
:1023C000D1F72091BC0024FD03C0109205040895AC
:1023D00040910704509108046091090470910A0427
:1023E000452B462B472B69F30097A105B10541F01A
:1023F0002AE22A95F1F700C00197A109B109E1CFBE
:10240000809106040C94DB050F931F93CF93DF9309
:102410008C01EB0188E2FB0111928A95E9F74BE010
:1024200050E066E872E0CE010E9411251B8681E033
:1024300090E0A0E0B0E08C879D87AE87BF87F80171
:1024400082819381092E000CAA0BBB0B888B998B80
:10245000AA8BBB8B8DE090E0A0E0B0E08C8B9D8BD5
:10246000AE8BBF8B1CA21DA21EA21FA280E090E01B
:10247000A0E2B2EC8C8F9D8FAE8FBF8F80E090E09A
:10248000A2EDB2E4888F998FAA8FBB8F84E09DEA7A
:10249000A0E4BBE388A399A3AAA3BBA3DF91CF9138
:1024A0001F910F9108950F931F93CF93DF938C018A
:1024B000EB0188E2FB0111928A95E9F74BE050E0CD
:1024C00060E972E0CE010E9411251B8641E050E0D8
:1024D00060E070E04C875D876E877F87F8018281BE
:1024E0009381092E000CAA0BBB0B888B998BAA8BAE
:1024F000BB8B4C8B5D8B6E8B7F8B1CA21DA21EA297
:102500001FA28AE098EEACE1B3EC8C8F9D8FAE8F6A
:10251000BF8F8AE098EEACE1B3E4888F998FAA8FE1
:10252000BB8F83E29BEDA9E7BDE388A399A3AAA390
:10253000BBA3DF91CF911F910F9108950F931F932C
:10254000CF93DF938C01EB0188E2FB0111928A9516
:10255000E9F74BE050E06AE972E0CE010E941125F4
:102560001B8681E090E0A0E0B0E08C879D87AE877D
:10257000BF87F80182819381092E000CAA0BBB0B47
:10258000888B998BAA8BBB8B84E090E0A0E0B0E0B5
:102590008C8B9D8BAE8BBF8B1CA21DA21EA21FA27B
:1025A00087ED93EAABE0B2EC8C8F9D8FAE8FBF8F3F
:1025B00087ED93EAABE0B2E4888F998FAA8FBB8F47
:1025C0008AE99BEAABE0B9E388A399A3AAA3BBA3DA
:1025D000DF91CF911F910F910895CF92DF92EF92EB
:1025E000FF921F93CF93DF93CDB7DEB7A0970FB6BF
:1025F000F894DEBF0FBECDBF7C010E942E0E84E694
:102600000E94090E85E0E6E0F2E0DE0111960190FD
:102610000D928A95E1F7FE0136968BE1DF011D925E
:102620008A95E9F7B701CE0101960E94062560EA76
:10263000CE0101960E94A50E81E00E94F3030E9444
:102640005B056B017C018FEF0E94E30D80911B0500
:10265000807321F50E945B056C197D098E099F0925
:10266000603671058105910570F381E0809328053E
:1026700010E00E94740E89E10E94090E812F90E003
:10268000A0960FB6F894DEBF0FBECDBFDF91CF91FD
:102690001F91FF90EF90DF90CF90089580E00E940F
:1026A000F30360E787E00E94F60D80911B0511E0BF
:1026B00084FFDFCF0E94F00DDBCF1F920F920FB689
:1026C0000F9211242F933F938F939F93AF93BF93B8
:1026D0008091D7039091D803A091D903B091DA03E8
:1026E0003091D60323E0230F2D3758F50196A11D15
:1026F000B11D2093D6038093D7039093D803A09362
:10270000D903B093DA038091DB039091DC03A091AD
:10271000DD03B091DE030196A11DB11D8093DB03A3
:102720009093DC03A093DD03B093DE03BF91AF91E0
:102730009F918F913F912F910F900FBE0F901F90FF
:10274000189526E8230F0296A11DB11DD2CF1F9226
:102750000F920FB60F9211240BB60F922F933F9347
:102760004F935F936F937F938F939F93AF93BF9399
:10277000EF93FF938FE294E00E948602FF91EF9126
:10278000BF91AF919F918F917F916F915F914F9189
:102790003F912F910F900BBE0F900FBE0F901F9087
:1027A00018951F920F920FB60F9211240BB60F922D
:1027B0002F938F939F93EF93FF93E0913F04F091BA
:1027C00040048081E0914504F091460482FD1DC0E3
:1027D0009081809148048F5F8F7320914904821704
:1027E00041F0E0914804F0E0E15DFB4F958F80936C
:1027F0004804FF91EF919F918F912F910F900BBE05
:102800000F900FBE0F901F9018958081F2CF1F92EE
:102810000F920FB60F9211240BB60F922F933F9386
:102820004F935F936F937F938F939F93AF93BF93D8
:10283000EF93FF938091B900887F803609F44DC0F3
:1028400008F040C0883209F4A9C028F5803109F4A5
:102850009DC0C8F4882309F4FBC0883009F496C0F1
:10286000FF91EF91BF91AF919F918F917F916F9168
:102870005F914F913F912F910F900BBE0F900FBE24
:102880000F901F901895883109F488C0803241F765
:102890008093030414C0803409F49DC040F4803355
:1028A000B9F38833E9F68093030485ECB0C0803532
:1028B00009F485C0883509F496C0883489F60E94E9
:1028C000CC11CECF883909F48CC038F5883729F07F
:1028D00050F4883611F0803719F683E080930504B0
:1028E0001092AE0357C0883809F47BC0803919F0C4
:1028F000803809F0B5CF8091AE03803208F071C006
:10290000E091AE0381E08E0F8093AE038091BB0017
:10291000F0E0E257FC4F80833DC0803B39F0E0F4AB
:10292000803A09F479C0883A09F09ACF84E080931C
:10293000050410928D0310928C03E091B003F09186
:10294000B103199580918C0381110FC081E08093B0
:102950008C0310926C0309C0803C09F4A6CF883C1C
:1029600009F4A3CF883B09F07BCFE0918D0381E090
:102970008E0F80938D03F0E0E459FC4F80818093AB
:10298000BB0090918D0380918C0329C08091E0035E
:102990008093BB0085EC8093BC0062CF90910204D1
:1029A00080910104981758F5E091020481E08E0FA0
:1029B00080930204F0E0EF51FC4F8081E9CFE09179
:1029C000020481E08E0F809302048091BB00F0E04E
:1029D000EF51FC4F8083909102048091010498177D
:1029E000C8F285E8D8CFE091020481E08E0F809391
:1029F00002048091BB00F0E0EF51FC4F8083809196
:102A0000040481115CCF81E08093DF0384EA80932A
:102A1000BC001092050424CF85EC8093BC0010927A
:102A200005048091AE03803230F4E091AE03F0E013
:102A3000E257FC4F10826091AE0370E0E091B20368
:102A4000F091B3038EE893E019951092AE0308CF8E
:102A50001092030434CF2F923F924F925F926F9265
:102A60007F928F929F92AF92BF92CF92DF92EF921E
:102A7000FF920F931F93CF93DF93CDB7DEB72F97BE
:102A80000FB6F894DEBF0FBECDBF6C011B015A011B
:102A9000FC011782168283819E012F5F3F4F4901FF
:102AA00081FDD2C08FEF9FEFEEC2F12C512C00E0E0
:102AB000003238F48B3209F190F48032F9F083322D
:102AC00009F107FD34C020ED280F2A3020F506FF5C
:102AD0001BC0FAE0FF9E200D1124F22E05C08D329E
:102AE00079F0803371F70160F10193FD859193FFD7
:102AF00081911F018111DCCF1AC002600460F4CF04
:102B00000860F2CF0061F0CF3AE0539E200D11240F
:102B1000522E0062E9CF8E3221F406FDB1C200646C
:102B2000E3CF8C3611F40068DFCF8836E9F29BEBF7
:102B3000980F933008F05FC00061805E06FD02C010
:102B400046E0F42E102F1F73853609F05BC0106429
:102B500017FF61C08F2D9BE39F1508F48BE344247E
:102B60004394480E27E03501F4E06F0E711CF50127
:102B70006081718182819381042DA4010E942B20A8
:102B80005C01F981FC87F0FF03C00DE2F3FF07C091
:102B90000BE211FD04C0012F047012FD00E22C8530
:102BA0002C70E22E09F46BC00111D8C2F3E0E12CC5
:102BB000F515A0F483E0E52CE81A13FD08C0B60172
:102BC00080E290E00E941921EA94E110F8CF0023FE
:102BD00029F0B601802F90E00E9419213C8524EE57
:102BE000A22E21E0B22E33FD04C098EEA92E91E072
:102BF000B92E107122C09BE9980F933008F047C19D
:102C00000F7E9CCF863611F41068A2CFFF2009F406
:102C10009FCFFA949DCFE7E02F2DEF1518F427E012
:102C200037E0F32E412C9FCF11118052B60190E076
:102C30000E9419218FEFA81AB80AF5018491811119
:102C4000F3CFE11084C25301F6019381F10193FDAA
:102C5000859193FF81911F01882309F411C2853268
:102C600041F493FD859193FF81911F01853209F015
:102C70001CCFB60190E00E9419213501E4CF17FF67
:102C80006FC04A0CFC85F4FF04C08A81813309F4CB
:102C90004A9414140CF086C028E0241510F488E03F
:102CA000482E85E090E017FF06C0C501B7FE02C0C0
:102CB00090E080E0019601110196FF2031F02F2D68
:102CC00030E02F5F3F4F820F931F5816190619F0FF
:102CD00014F0E52CE81A812F897011F4E11067C017
:102CE000002329F0B601802F90E00E94192113FDE6
:102CF00002C0E11063C017FF7CC08501B7FE02C0AF
:102D000010E000E0C501841991092C016F2D70E0DD
:102D1000EE27FF27E61BF70BFF87EE870F3F100715
:102D200029F4B6018EE290E00E941921A016B106A6
:102D30000CF44BC0401651060CF047C0F501E01BE7
:102D4000F10BE80DF91D8181015011092E853F8598
:102D500002171307E4F1B60190E00E941921DECFBB
:102D600016FD9FCFEF2DF0E0EA15FB0534F03CEFA8
:102D7000A3163FEFB3060CF010683296E80DF91D6C
:102D800001C0FA94FF2019F082918033D1F317FF2C
:102D900088CF442443944F0CFA141B0431F02CF0D8
:102DA000FA187FCF442443947CCFF12C7ACFB6011C
:102DB00080E290E00E941921EA9490CFB60180E36E
:102DC00090E00E941921EA9494CF80E3BDCFA01631
:102DD000B10641F49A81963350F4953319F43C8549
:102DE00034FF05C0B60190E00E9419212ACF81E38B
:102DF000F9CF8A81813319F09C859F7E9C87B6012B
:102E000090E00E941921FF20A9F0B6018EE290E027
:102E10000E941921F394F394E2E001E00E0FE80D13
:102E2000F92DF11D8081B60190E00E941921E02F5B
:102E30000F11F3CF85E690E014FF02C085E490E027
:102E4000B6010E941921B7FC06C0A114B104C1F457
:102E5000EC85E4FF15C0B194A194B1088DE2B601F0
:102E600090E00E94192180E32AE0A216B10454F4F4
:102E7000B60190E00E941921B601C501C096B4CFF9
:102E80008BE2EDCF8F5FFAE0AF1AB108EDCF83365A
:102E9000C9F0833771F1833509F05BC03501F2E089
:102EA0006F0E711CF501A080B1806F2D70E006FDE2
:102EB00002C06FEF7FEFC5010E9403219D878C87C1
:102EC00000680DC0350132E0630E711CF501808190
:102ED000898321E030E03D872C8754010F7703FD83
:102EE00006C02C853D855216130609F0A8F4E52C82
:102EF0002BC0350132E0630E711CF501A080B1805A
:102F00006F2D70E006FD02C06FEF7FEFC5010E94DC
:102F10000E219D878C87E2CFB60180E290E00E946F
:102F200019215A94DECFF50107FD859107FF8191A4
:102F30005F01B60190E00E941921E110EA948C85AE
:102F40009D8501979D878C87EC85FD85EF2B59F733
:102F500078CE843619F0893609F074C0350107FF40
:102F600066C0F4E06F0E711CF50160817181828191
:102F70009381102F1F7697FF08C0909580957095CC
:102F800061957F4F8F4F9F4F10682AE030E0A4017A
:102F90000E944921A82EA818BA2C012F16FF0AC09A
:102FA0000E7FAF1438F414FF04C012FD02C0012FCD
:102FB0000E7EBF2C04FFA3C0FE01EA0DF11D80812F
:102FC000803309F095C0097EF02FF870EF2E03FDD5
:102FD000A5C000FF9FC0FA2CB51410F4F50CFB1827
:102FE00004FFA2C0B60180E390E00E94192102FF15
:102FF00009C088E790E001FF02C088E590E0B601D3
:103000000E941921AF1408F49BC0AA940A2D10E065
:103010000F5F1F4F080D191DF80182918F01B60136
:1030200090E00E94192180169106B1F70ACEF2E0D5
:103030006F0E711CF50160817181072E000C880BE9
:10304000990B97CF102F8537A9F41F7E2AE030E027
:10305000350117FF44C0F4E06F0E711CF50160816B
:10306000718182819381A4010E944921A82EA81810
:103070001F7792CF197F8F3679F1F0F4883539F1C7
:10308000F601868197812F960FB6F894DEBF0FBEAA
:10309000CDBFDF91CF911F910F91FF90EF90DF9007
:1030A000CF90BF90AF909F908F907F906F905F90E8
:1030B0004F903F902F900895803739F0883701F76F
:1030C00014FD146020E130E0C3CF1061F9CF04FD9E
:1030D000166020E132E0BCCF28E030E0B9CFF2E06A
:1030E0006F0E711CF5016081718190E080E0BBCFB3
:1030F00002FD02C0B39468CFB394B39465CF802F20
:10310000867809F461CFF6CFB60180E290E00E94A4
:103110001921B394B514C0F3E12C62CFE52CEB1860
:10312000B51408F45DCFF8CF802F867809F46ACF04
:103130008BE201FF80E207FD8DE2B60190E060CFF7
:10314000B60180E390E00E941921FA945BCFB601AA
:1031500080E290E00E941921EA9473CD24E0E12CF2
:10316000251508F036CD84E026CDEFE2F4E0138299
:10317000128288EE93E0A0E0B0E084839583A6837A
:10318000B78320E632E03183208325EC30E03587B9
:10319000248724EC30E03787268720EC30E0318B21
:1031A000208B21EC30E0338B228B22EC30E0358B0E
:1031B000248B26EC30E0378B268B118E128E138EEB
:1031C000148EECECF4E01382128284839583A68340
:1031D000B78382E792E091838083E3E1F5E08DE0BD
:1031E00082838CE0838380E896E9A8E9B0E0848359
:1031F0009583A683B78380E28187108A118A85E050
:10320000838B81E0848B85E090E0A0E0B0E0828F4A
:10321000938FA48FB58F88ED94E09183808312867D
:10322000E9EDF4E084E892E091838083178E168EB6
:1032300011A210A213A212A215A214A20895CF9354
:10324000DF93CDB7DEB7C05AD1090FB6F894DEBF11
:103250000FBECDBF789484B5826084BD84B5816093
:1032600084BD85B5826085BD85B5816085BD809151
:103270006E00816080936E001092810080918100C9
:1032800082608093810080918100816080938100C1
:10329000809180008160809380008091B100846083
:1032A0008093B1008091B00081608093B0008091E4
:1032B0009100826080939100809191008160809361
:1032C0009100809190008160809390008091A10096
:1032D00082608093A1008091A10081608093A10011
:1032E0008091A00081608093A00080912101826084
:1032F000809321018091210181608093210180913F
:10330000200181608093200180917A008460809305
:103310007A0080917A00826080937A0080917A00AE
:10332000816080937A0080917A00806880937A002F
:103330001092C10061E085E00E94FC0361E082E040
:103340000E94FC0361E083E00E94FC0361E084E0F2
:103350000E94FC0361E088E00E94FC0361E087E0DA
:103360000E94FC0361E086E00E94FC0360E08EE2C4
:103370000E94FC0350E040E070E060E081E090E0FB
:103380000E94EB09EFE6EE2EE3E0FE2EF5EBCF2EEA
:10339000F3E0DF2EA5E58A2E912CA12CB12C00E2C2
:1033A00015E07FB6F8948091AF03811125C0F70135
:1033B0008491F6019491E82FF0E0EE0FFF1FEA5F91
:1033C000FC4FA591B4918C91982321F461E085E3A1
:1033D0000E94B70361E085E30E94FC038CB5806125
:1033E0008CBD8CB580648CBD61E084E30E94FC03DD
:1033F00061E083E30E94FC038091AF038F5F8093C1
:10340000AF037FBE809115058F3F09F4CACF90911D
:1034100016059F3F09F4C5CF891741F061E00E946E
:10342000FC0361E0809116050E94FC0380E00E948D
:10343000F30381E00E94E50365E070E080E090E046
:103440000E9429056FE584E00E94F60D86E00E9447
:103450001C0E8092290590922A05A0922B05B0920D
:103460002C05682F677D86E00E94F60D86E00E949D
:103470001C0E8DE10E941C0E782E0E940B0F8DE118
:103480000E941C0E91E0781290E09093230588230F
:1034900041F0781202C00E940B0F60E08DE10E94A3
:1034A000F60D1092250560E08CE10E94F60D109259
:1034B00027056FE381E00E94F60D63E082E00E9441
:1034C000F60D00931C0561E1762E60911C05872D99
:1034D0000E94F60D7394F7E17F12F7CF63E083E06B
:1034E0000E94F60D109326058CE40E94090E60E7F9
:1034F00087E00E94F60D82EE0E94E30D0E94F00D1F
:103500006CE080E00E94F60D80E00E941C0E80932B
:1035100022050E940D0E809122058E3009F041CFC8
:10352000E7EEF2E084914091260566E572E00E94A4
:10353000540E82E00E941C0EEDE0F4E0E49161E0A4
:1035400070E001C0660FEA95EAF7682B82E00E94FE
:10355000F60D4091260560E572E08AE00E94540E67
:103560004091260560E572E080E10E94540E86E0FD
:103570000E941C0E887F682F616086E00E94F60D15
:1035800089E10E94090E84EA92E00E94ED1250E067
:1035900040E061E070E0892B21F441E050E070E010
:1035A00060E090E080E00E94EB098091F704909148
:1035B000F804009711F00E947D2486E090E00E94BC
:1035C000E123FC0188E680838CEC94E09283818384
:1035D000138280E290E095838483F093F804E09373
:1035E000F70405E047E6C42E45E0D42E58E6A52EA4
:1035F00055E0B52E11E0E090F704F090F804109239
:10360000B5031092B40310920C0410922E040E9481
:10361000BD05D092B103C092B003B092B303A092A3
:10362000B203D70113961C93C7010E944908811168
:10363000F7C36AE070E080E090E00E942905015045
:10364000D1F688EC92E00E94ED1278C48091C80314
:103650009091C903D401A81BB90BA536B1050CF094
:10366000AEC28091C6039091C703881A990AF5E10A
:103670008F1691040CF4D9C10E942E0E84E60E948C
:10368000090E80E2D3011D928A95E9F70E945B053D
:103690006B017C0189ED94E00E94390C18E1C3575D
:1036A000DF4FE881F981CD58D040212F11922A9522
:1036B000E9F784E290E0A0E0B0E089839A83AB83ED
:1036C000BC838091030590910405B0E0A0E08D8358
:1036D0009E83AF83B8872DE030E040E050E029873B
:1036E0003A874B875C87C98ADA8AEB8AFC8A3091F1
:1036F000DB04CF56DF4F3883C159D0404091DC0402
:10370000CE56DF4F4883C259D0405091DD04CD568C
:10371000DF4F5883C359D0408091DE04CC56DF4F31
:103720008883C459D040532FCD56DF4F3881C359B9
:10373000D040282F852F942FA32FB22F8D8B9E8BB7
:10374000AF8BB88FC156DF4FA881B981CF59D04018
:10375000E12F1D92EA95E9F72D962CAE3DAE4EAEC7
:103760005FAE2D978091FF0490910005B0E0A0E03E
:1037700061968CAF9DAFAEAFBFAF619765962CAE33
:103780003DAE4EAE5FAE65976D96CCAEDDAEEEAEA5
:10379000FFAE6D972AE038EE4CE151E46091DF0412
:1037A0007091E0048091E1049091E2040E944A2328
:1037B000CB56DF4F6883C559D040CA56DF4F788358
:1037C000C659D040C956DF4F8883C759D040C85624
:1037D000DF4F9883C859D040472F382F292F862F85
:1037E000942FA32FB22FA1968CAF9DAFAEAFBFAFDA
:1037F000A1972AE038EE4CE151E46091E304709126
:10380000E4048091E5049091E6040E944A23962EF8
:10381000872EC756DF4F8883C959D040C656DF4F21
:103820009883CA59D040A401382F292F852F942F6F
:10383000A32FB22FA5968CAF9DAFAEAFBFAFA5970C
:103840002AE038EE4CE151E46091E7047091E8041D
:103850008091E9049091EA040E944A23C556DF4F03
:103860006883CB59D040C456DF4F7883CC59D040C1
:10387000C356DF4F8883CD59D040C256DF4F98835F
:10388000CE59D040472F382F292F862F942FA32F82
:10389000B22FA9968CAF9DAFAEAFBFAFA997C1575E
:1038A000DF4FA881B981CF58D0401D921A95E9F712
:1038B0002DA23EA24FA258A680910105909102052B
:1038C000B0E0A0E089A79AA7ABA7BCA724E030E0AE
:1038D00040E050E02DA73EA74FA758ABCDAADEAAE7
:1038E000EFAAF8AE25E33AEF4EE85CE36091EB0413
:1038F0007091EC048091ED049091EE040E944A23B3
:10390000162F072FF82EE92EA8019701852F942F47
:10391000A32FB22F89AF9AAFABAFBCAF25E33AEF7D
:103920004EE85CE36091EF047091F0048091F10443
:103930009091F2040E944A23D62EC72EB82EA92EAB
:10394000A6019501852F942FA32FB22F21968CAF1E
:103950009DAFAEAFBFAF219725E33AEF4EE85CE3F2
:103960006091F3047091F4048091F5049091F60451
:103970000E944A23FB01462F5F2F682F792F25963F
:103980004CAF5DAF6EAF7FAF25972091B6033091FE
:10399000B7032230310509F498C10CF015C1211587
:1039A000310509F422C12130310509F447C10E94D3
:1039B0005B056B017C0187E10E941C0E84FDD7C171
:1039C00080911B0584FFC3C160E187E00E94F60D72
:1039D00080E00E94F30381E00E94F3030E945B05F4
:1039E000C616D706E806F90609F4B1C180E00E94C0
:1039F000F3030E94F00D8091B6039091B7030196F6
:103A00008530910509F4B7C19093B7038093B6034D
:103A10000E94740E89E10E94090E8091D403909156
:103A2000D5039093C7038093C6032091D2033091AE
:103A3000D3038091D0039091D103821793070CF0A8
:103A40009FC13093C5032093C4030091CC03109110
:103A5000CD03B801012E000C880B990B0E94BE22E9
:103A600020E030E040E85BE30E944A2320E030E0C1
:103A700040E85FE317FF8CC10E94A8219B01AC01C5
:103A80000E94A82120E030E040E85FE30E94A721E7
:103A90006093C0037093C1038093C2039093C303E8
:103AA00080E090E0A0E8BFE38093BC039093BD0367
:103AB000A093BE03B093BF038091CA039091CB0340
:103AC000892B09F4A0C16091C4037091C503072E2E
:103AD000000C880B990B0E94BE226B017C01209187
:103AE000C0033091C1034091C2035091C3030E94AF
:103AF0004A230E9486222091BC033091BD0340914D
:103B0000BE035091BF038091BA039091BB03681725
:103B100079070CF05AC101979093BB038093BA03C5
:103B2000C701B6010E944A230E9486228091B803F1
:103B30009091B903681779070CF04DC101979093E4
:103B4000B9038093B8030091B8031091B903609151
:103B5000BA037091BB0377FF44C1719561957109F8
:103B600085E00E942D0470E060E082E00E942D0458
:103B7000101611060CF03CC1B80183E00E942D0420
:103B800070E060E084E00E942D040E941F03FFC1EA
:103B9000115020F08FEF0E949508FACF0E949208F2
:103BA00060E487E00E94F60D81E090E09093CB0303
:103BB0008093CA039092C9038092C80352CD109299
:103BC000CB031092CA034DCD2330310509F48CC0CC
:103BD0002430310509F0EBCE8091CB038F93809197
:103BE000CA038F9383E393E09FC0CC56DF4F3881A5
:103BF000C459D0403F93CD56DF4F4881C359D04080
:103C00004F93CE56DF4F5881C259D0405F93CF5665
:103C1000DF4F8881C159D0408F9385EF92E09F9309
:103C20008F937F926F920E942025C3010E94D80E2D
:103C30000FB6F894DEBF0FBECDBFB9CEC256DF4F70
:103C4000B881CE59D040BF93C356DF4FE881CD59DC
:103C5000D040EF93C456DF4FF881CC59D040FF934A
:103C6000C556DF4F2881CB59D0402F93C656DF4F22
:103C70003881CA59D0403F93C756DF4F4881C95950
:103C8000D0404F938F929F92C856DF4F5881C859AA
:103C9000D0405F93C956DF4F8881C759D0408F937A
:103CA000CA56DF4F9881C659D0409F93CB56DF4FFD
:103CB000A881C559D040AF938FEF92E09F938F9327
:103CC0007F926F920E942025B0CF9F938F93FF9396
:103CD000EF93AF92BF92CF92DF92EF92FF920F934A
:103CE0001F9382E193E0EACFE4EFF3E08491EEEA00
:103CF000F3E00491E8E6F3E01491112329F1811136
:103D00000E945003E12FF0E0EE0FFF1FE451FD4F42
:103D1000A591B491EC910E2381E090E009F480E04C
:103D20009F938F9386E293E09F938F937F926F92FE
:103D30000E942025C3010E94D80E0F900F900F9073
:103D40000F900F900F9033CE80E090E0E9CF0E946B
:103D50005B056C197D098E099F0961367105810526
:103D6000910508F428CE81E08093280544CE80E0B8
:103D70000E94F30340CE1092B7031092B60348CED0
:103D80009195819591099093C5038093C4035DCE6D
:103D90002093C0033093C1034093C2035093C303E5
:103DA00020E030E040E050EC0E944A2320E030E088
:103DB00040E85FE30E94A8216093BC037093BD03B9
:103DC0008093BE039093BF0377CE861797070CF0BE
:103DD000A7CE0196A1CE861797070CF0B4CE019618
:103DE000AECE82E00E942D0470E060E085E0BECEA1
:103DF00066277727601B710B84E00E942D0470E01A
:103E000060E083E0C0CE70E060E082E00E942D04BC
:103E100070E060E085E00E942D0470E060E0ECCF8F
:103E20008091F7049091F804188A198A1A8A1B8ADB
:103E30009A8389831C821B821A8785E790E0988782
:103E40008F831B861987AE014F5F5F4F7A01CA01CE
:103E50000E94840B683671058105910509F0F1CB4C
:103E600040E050E0BA0189ED94E00E9443108823BD
:103E700009F4E7CB86EB92E00E94ED128091F70403
:103E80009091F804188A198A1A8A1B8A9A8389835E
:103E90001C821B821A878CE190E098878F831B8697
:103EA0001987FEA2EDA232E0D32EDFA203E008A71D
:103EB00042E050E060E070E0CE0185960E94B50BD4
:103EC0008091F7049091F804188A198A1A8A1B8A3B
:103ED0009A8389831C821B821A878BE190E09887E2
:103EE0008F831B861987FEA2EDA2DFA208A741E0FF
:103EF00050E060E070E0CE0185960E94B50B8091A5
:103F0000F7049091F804188A198A1A8A1B8A9A83EE
:103F100089831C821B821A878AE190E098878F83AD
:103F20001B861987FEA2EDA20FA318A644E050E05D
:103F300060E070E0CE0185960E94B50B8CED92E0BA
:103F40000E94ED123E01BDE66B0E711CFE013D9616
:103F5000C357DF4FF983E883CD58D04029E430E0E0
:103F60002C0F3D1F245F3F4FC156DF4F39832883FD
:103F7000CF59D040212C312C21012394AE014F5C2C
:103F80005F4FC157DF4F59834883CF58D0400E94BD
:103F90005B054B017093D5036093D40387E10E94C6
:103FA0001C0E80FD53CB8091270510E008E08111A5
:103FB00007C010911C05012F193008F008E0101BF4
:103FC0000E94BB0D81E60E94950880931B059CEC26
:103FD000E92E93E0F92E015008F4DACD8FEF0E941C
:103FE0009508F70181937F01F6CF84E892E09093E2
:103FF000DA048093D9048091F9049091FA0400972F
:1040000039F0DC01ED91FC910280F381E02D1995EE
:104010008091FB049091FC04009739F0DC01ED9154
:10402000FC910280F381E02D19958091FD0490911F
:10403000FE04009739F0DC01ED91FC910280F381E0
:10404000E02D19958091F7049091F804009711F0F4
:104050000C947D240895283008F027E03327DA01F6
:10406000990F311D87FD916000966105710539F446
:1040700032602E5F3D9330E32A95E1F708959F3F2C
:1040800030F080387105610509F03C5F3C5F3D937D
:10409000913008F08068911DDF93CF931F930F93A9
:1040A000FF92EF92192F987F9695E92F9695969506
:1040B000E90FFF27EA5BFD4F99273327EE24FF2402
:1040C000A701E70105900894079428F4360FE71E2E
:1040D000F81E491F511D660F771F881F991F0694F0
:1040E000A1F70590079428F4E70EF81E491F561F04
:1040F000C11D770F881F991F661F0694A1F70590B1
:10410000079428F4F80E491F561FC71FD11D880FAA
:10411000991F661F771F0694A1F70590079420F456
:10412000490F561FC71FD81F990F661F771F881F7B
:104130000694A9F784911095177041F0D695C7950C
:1041400057954795F794E7941A95C1F7ECEEF1E08F
:1041500068941590159135916591959105907FE240
:104160007395E118F10A430B560BC90BD009C0F740
:10417000E10CF11E431F561FC91FD01D7EF4703382
:1041800011F48A95E6CFE894015030F0080F0AF454
:104190000027021708F4202F2395022F7A3328F0E6
:1041A00079E37D932A95E9F710C07D932A9589F6E6
:1041B000069497956795379517951794E118F10A26
:1041C000430B560BC90BD00998F023957E9173953C
:1041D0007A3308F070E37C932013B8F77E91706116
:1041E0007D9330F0839571E37D9370E32A95E1F739
:1041F0001124EF90FF900F911F91CF91DF9199279C
:1042000087FD90950895FC01059061507040011064
:10421000D8F7809590958E0F9F1F0895FC016150EF
:10422000704001900110D8F7809590958E0F9F1FD8
:1042300008950F931F93CF93DF93182F092FEB014E
:104240008B8181FD09C01FEF0FEF812F902FDF9130
:10425000CF911F910F91089582FF14C02E813F814D
:104260008C819D81281739073CF4E881F981CF01C1
:1042700001969983888310838E819F8101969F8305
:104280008E83E3CFE885F985812F1995892BA1F3DA
:10429000DACFFA01AA27283051F1203181F1E894D0
:1042A0006F936E7F6E5F7F4F8F4F9F4FAF4FB1E029
:1042B0003ED0B4E03CD0670F781F891F9A1FA11D24
:1042C000680F791F8A1F911DA11D6A0F711D811D25
:1042D000911DA11D20D009F468943F912AE0269FEA
:1042E00011243019305D3193DEF6CF010895462F49
:1042F0004770405D4193B3E00FD0C9F7F6CF462F2A
:104300004F70405D4A3318F0495D31FD4052419392
:1043100002D0A9F7EACFB4E0A6959795879577954F
:104320006795BA95C9F700976105710508959B01D6
:10433000AC010A2E06945795479537952795BA955F
:10434000C9F7620F731F841F951FA01D0895505851
:10435000BB27AA270E94BF210C9410230E9402238E
:1043600038F00E94092320F039F49F3F19F426F415
:104370000C94FF220EF4E095E7FB0C94F922E92F50
:104380000E94212358F3BA17620773078407950721
:1043900020F079F4A6F50C9443230EF4E0950B2E4F
:1043A000BA2FA02D0B01B90190010C01CA01A00187
:1043B0001124FF27591B99F0593F50F4503E68F1E2
:1043C0001A16F040A22F232F342F4427585FF3CF23
:1043D000469537952795A795F0405395C9F77EF4F4
:1043E0001F16BA0B620B730B840BBAF09150A1F03D
:1043F000FF0FBB1F661F771F881FC2F70EC0BA0FC3
:10440000621F731F841F48F4879577956795B7954A
:10441000F7959E3F08F0B0CF9395880F08F0992745
:10442000EE0F9795879508950E9428220C941023EB
:104430000E94092358F00E94022340F029F45F3FB4
:1044400029F00C94F92251110C9444230C94FF226E
:104450000E94212368F39923B1F3552391F3951B0F
:10446000550BBB27AA2762177307840738F09F5F95
:104470005F4F220F331F441FAA1FA9F335D00E2E02
:104480003AF0E0E832D091505040E695001CCAF76F
:104490002BD0FE2F29D0660F771F881FBB1F261732
:1044A00037074807AB07B0E809F0BB0B802DBF0109
:1044B000FF2793585F4F3AF09E3F510578F00C94D8
:1044C000F9220C9444235F3FE4F3983ED4F386959D
:1044D00077956795B795F7959F5FC9F7880F911DF9
:1044E0009695879597F90895E1E0660F771F881FE5
:1044F000BB1F621773078407BA0720F0621B730B98
:10450000840BBA0BEE1F88F7E09508950E948D2268
:104510006894B1110C94442308950E94292388F0D3
:104520009F5798F0B92F9927B751B0F0E1F0660F77
:10453000771F881F991F1AF0BA95C9F714C0B130B8
:1045400091F00E944323B1E008950C944323672F18
:10455000782F8827B85F39F0B93FCCF386957795E7
:104560006795B395D9F73EF49095809570956195D0
:104570007F4F8F4F9F4F0895E89409C097FB3EF4FB
:1045800090958095709561957F4F8F4F9F4F9923A0
:10459000A9F0F92F96E9BB279395F695879577951E
:1045A0006795B795F111F8CFFAF4BB0F11F460FFDE
:1045B0001BC06F5F7F4F8F4F9F4F16C0882311F036
:1045C00096E911C0772321F09EE8872F762F05C04A
:1045D000662371F096E8862F70E060E02AF09A95E5
:1045E000660F771F881FDAF7880F9695879597F9DA
:1045F000089597F99F6780E870E060E008959FEF65
:1046000080EC089500240A94161617061806090669
:10461000089500240A941216130614060506089538
:10462000092E0394000C11F4882352F0BB0F40F4C0
:10463000BF2B11F460FF04C06F5F7F4F8F4F9F4F00
:10464000089557FD9058440F551F59F05F3F71F082
:104650004795880F97FB991F61F09F3F79F08795E9
:104660000895121613061406551FF2CF4695F1DF72
:1046700008C0161617061806991FF1CF8695710502
:10468000610508940895E894BB2766277727CB0136
:1046900097F908950E945D230C9410230E94022331
:1046A00038F00E94092320F0952311F00C94F92290
:1046B0000C94FF2211240C9444230E94212370F3B4
:1046C000959FC1F3950F50E0551F629FF001729FB7
:1046D000BB27F00DB11D639FAA27F00DB11DAA1FC6
:1046E000649F6627B00DA11D661F829F2227B00D13
:1046F000A11D621F739FB00DA11D621F839FA00D9E
:10470000611D221F749F3327A00D611D231F849FED
:10471000600D211D822F762F6A2F11249F57504044
:104720009AF0F1F088234AF0EE0FFF1FBB1F661FBF
:10473000771F881F91505040A9F79E3F510580F088
:104740000C94F9220C9444235F3FE4F3983ED4F395
:10475000869577956795B795F795E7959F5FC1F72C
:10476000FE2B880F911D9695879597F90895A1E2E4
:104770001A2EAA1BBB1BFD010DC0AA1FBB1FEE1FDB
:10478000FF1FA217B307E407F50720F0A21BB30B26
:10479000E40BF50B661F771F881F991F1A9469F7A2
:1047A00060957095809590959B01AC01BD01CF01FE
:1047B0000895EE0FFF1F881F8BBF0790F691E02D25
:1047C00019940F931F93CF93DF938230910510F4C8
:1047D00082E090E0E0913305F091340530E020E094
:1047E000B0E0A0E0309799F42115310509F44AC0F2
:1047F000281B390B24303105D8F58A819B8161153E
:10480000710589F1FB0193838283FE0111C0408110
:1048100051810281138148175907E0F04817590761
:1048200099F4109761F012960C93129713961C93BB
:104830003296CF01DF91CF911F910F910895009390
:10484000330510933405F4CF2115310551F042178B
:10485000530738F0A901DB019A01BD01DF01F8011E
:10486000C1CFEF01F9CF9093340580933305CDCFBD
:10487000FE01E20FF31F8193919322503109398396
:104880002883D7CF2091310530913205232B41F475
:1048900020910202309103023093320520933105BA
:1048A00020910002309101022115310541F42DB70C
:1048B0003EB74091040250910502241B350BE09154
:1048C0003105F0913205E217F307A0F42E1B3F0BE0
:1048D0002817390778F0AC014E5F5F4F2417350772
:1048E00048F04E0F5F1F509332054093310581937E
:1048F00091939FCFF0E0E0E09CCFCF93DF930097C0
:10490000E9F0FC01329713821282A0913305B09135
:104910003405ED0130E020E01097A1F420813181D1
:10492000820F931F209131053091320528173907E6
:1049300009F061C0F0933205E0933105DF91CF912A
:104940000895EA01CE17DF07E8F54A815B819E01F1
:1049500041155105B1F7E901FB83EA83499159916A
:10496000C40FD51FEC17FD0761F480819181029679
:10497000840F951FE90199838883828193819B83AA
:104980008A83F0E0E0E012968D919C911397009756
:10499000B9F52D913C911197CD010296820F931F8D
:1049A00020913105309132052817390739F63097B3
:1049B00051F51092340510923305B0933205A0934F
:1049C0003105BCCFD383C28340815181840F951FB1
:1049D000C817D90761F44E5F5F4F88819981480FEE
:1049E000591F518340838A819B8193838283211540
:1049F000310509F0B0CFF0933405E09333059ECF35
:104A0000FD01DC01C0CF13821282D7CFFB01DC0194
:104A10000D900020E9F7119701900D920020E1F729
:104A20000895FB01DC014150504048F001900D9287
:104A30000020C9F701C01D9241505040E0F7089591
:104A40000F931F93CF93DF93CDB7DEB72E970FB69B
:104A5000F894DEBF0FBECDBF0E891F8986E08C8320
:104A60001A8309838FEF9FE79E838D83AE01465E95
:104A70005F4F688D798DCE0101960E942B152F8195
:104A80003885020F131FF80110822E960FB6F89486
:104A9000DEBF0FBECDBFDF91CF911F910F91089563
:104AA00012E0CAE0D2E000E006C0802FFE010E94C2
:104AB000D9232196011DCB30D10780E00807A9F743
:044AC000F894FFCF98
:104AC4000000350580006C6F672C000000000000BA
:104AD40000000000000000000000000000000000D2
:104AE4000000000000000000000082083D10830860
:104AF400D20F9E120000000082083F1083085C0F52
:104B0400531200000000820841108308170F04129A
:104B140072303030303163303030303100000000DA
:104B2400A80269054902F5027A0258026C020000E3
:104B34000000430716077207EC060F07FC06ED0694
:104B44000000000043104D5055363035305F54009E
:104B54004D5055363035305F41004D505536303567
:104B6400305F4700526164696F20696E6974616CDB
:104B7400697A65642E004779726F20496E69746999
:104B8400616C697A65642E004779726F206E6F7468
:104B940020636F6E6E65637465642E00496E69747C
:104BA40069616C697A6174696F6E20636F6D706C92
:104BB4006574652E0074656D702C252E3266006157
:104BC40063632C252E32662C252E32662C252E323C
:104BD40066006779726F2C252E32662C252E32667C
:104BE4002C252E326600766962726174696F6E2CB0
:104BF400256400636F6E74726F6C6C6572436F6EC4
:0A4C04006E65637465642C2564007E
:00000001FF
